{
  "contractName": "Erc721td",
  "abi": [
    {
      "inputs": [],
      "stateMutability": "nonpayable",
      "type": "constructor"
    },
    {
      "anonymous": false,
      "inputs": [
        {
          "indexed": true,
          "internalType": "address",
          "name": "owner",
          "type": "address"
        },
        {
          "indexed": true,
          "internalType": "address",
          "name": "approved",
          "type": "address"
        },
        {
          "indexed": true,
          "internalType": "uint256",
          "name": "tokenId",
          "type": "uint256"
        }
      ],
      "name": "Approval",
      "type": "event"
    },
    {
      "anonymous": false,
      "inputs": [
        {
          "indexed": true,
          "internalType": "address",
          "name": "owner",
          "type": "address"
        },
        {
          "indexed": true,
          "internalType": "address",
          "name": "operator",
          "type": "address"
        },
        {
          "indexed": false,
          "internalType": "bool",
          "name": "approved",
          "type": "bool"
        }
      ],
      "name": "ApprovalForAll",
      "type": "event"
    },
    {
      "anonymous": false,
      "inputs": [
        {
          "indexed": true,
          "internalType": "address",
          "name": "from",
          "type": "address"
        },
        {
          "indexed": true,
          "internalType": "address",
          "name": "to",
          "type": "address"
        },
        {
          "indexed": true,
          "internalType": "uint256",
          "name": "tokenId",
          "type": "uint256"
        }
      ],
      "name": "Transfer",
      "type": "event"
    },
    {
      "inputs": [
        {
          "internalType": "address",
          "name": "to",
          "type": "address"
        },
        {
          "internalType": "uint256",
          "name": "tokenId",
          "type": "uint256"
        }
      ],
      "name": "approve",
      "outputs": [],
      "stateMutability": "nonpayable",
      "type": "function"
    },
    {
      "inputs": [],
      "name": "avecdre",
      "outputs": [
        {
          "internalType": "bool",
          "name": "",
          "type": "bool"
        }
      ],
      "stateMutability": "view",
      "type": "function",
      "constant": true
    },
    {
      "inputs": [
        {
          "internalType": "address",
          "name": "owner",
          "type": "address"
        }
      ],
      "name": "balanceOf",
      "outputs": [
        {
          "internalType": "uint256",
          "name": "",
          "type": "uint256"
        }
      ],
      "stateMutability": "view",
      "type": "function",
      "constant": true
    },
    {
      "inputs": [],
      "name": "baseURI",
      "outputs": [
        {
          "internalType": "string",
          "name": "",
          "type": "string"
        }
      ],
      "stateMutability": "view",
      "type": "function",
      "constant": true
    },
    {
      "inputs": [
        {
          "internalType": "uint256",
          "name": "",
          "type": "uint256"
        }
      ],
      "name": "cara",
      "outputs": [
        {
          "internalType": "uint256",
          "name": "sex",
          "type": "uint256"
        },
        {
          "internalType": "uint256",
          "name": "legs",
          "type": "uint256"
        },
        {
          "internalType": "bool",
          "name": "wings",
          "type": "bool"
        },
        {
          "internalType": "string",
          "name": "name",
          "type": "string"
        },
        {
          "internalType": "bool",
          "name": "sale",
          "type": "bool"
        },
        {
          "internalType": "uint256",
          "name": "price",
          "type": "uint256"
        },
        {
          "internalType": "uint256",
          "name": "parent1",
          "type": "uint256"
        },
        {
          "internalType": "uint256",
          "name": "parent2",
          "type": "uint256"
        },
        {
          "internalType": "bool",
          "name": "canrep",
          "type": "bool"
        },
        {
          "internalType": "uint256",
          "name": "repprice",
          "type": "uint256"
        }
      ],
      "stateMutability": "view",
      "type": "function",
      "constant": true
    },
    {
      "inputs": [
        {
          "internalType": "uint256",
          "name": "tokenId",
          "type": "uint256"
        }
      ],
      "name": "getApproved",
      "outputs": [
        {
          "internalType": "address",
          "name": "",
          "type": "address"
        }
      ],
      "stateMutability": "view",
      "type": "function",
      "constant": true
    },
    {
      "inputs": [
        {
          "internalType": "uint256",
          "name": "",
          "type": "uint256"
        }
      ],
      "name": "idToIndex",
      "outputs": [
        {
          "internalType": "uint256",
          "name": "",
          "type": "uint256"
        }
      ],
      "stateMutability": "view",
      "type": "function",
      "constant": true
    },
    {
      "inputs": [
        {
          "internalType": "address",
          "name": "owner",
          "type": "address"
        },
        {
          "internalType": "address",
          "name": "operator",
          "type": "address"
        }
      ],
      "name": "isApprovedForAll",
      "outputs": [
        {
          "internalType": "bool",
          "name": "",
          "type": "bool"
        }
      ],
      "stateMutability": "view",
      "type": "function",
      "constant": true
    },
    {
      "inputs": [],
      "name": "isdead",
      "outputs": [
        {
          "internalType": "bool",
          "name": "",
          "type": "bool"
        }
      ],
      "stateMutability": "view",
      "type": "function",
      "constant": true
    },
    {
      "inputs": [],
      "name": "name",
      "outputs": [
        {
          "internalType": "string",
          "name": "",
          "type": "string"
        }
      ],
      "stateMutability": "view",
      "type": "function",
      "constant": true
    },
    {
      "inputs": [
        {
          "internalType": "uint256",
          "name": "tokenId",
          "type": "uint256"
        }
      ],
      "name": "ownerOf",
      "outputs": [
        {
          "internalType": "address",
          "name": "",
          "type": "address"
        }
      ],
      "stateMutability": "view",
      "type": "function",
      "constant": true
    },
    {
      "inputs": [],
      "name": "prix",
      "outputs": [
        {
          "internalType": "uint256",
          "name": "",
          "type": "uint256"
        }
      ],
      "stateMutability": "view",
      "type": "function",
      "constant": true
    },
    {
      "inputs": [
        {
          "internalType": "address",
          "name": "from",
          "type": "address"
        },
        {
          "internalType": "address",
          "name": "to",
          "type": "address"
        },
        {
          "internalType": "uint256",
          "name": "tokenId",
          "type": "uint256"
        }
      ],
      "name": "safeTransferFrom",
      "outputs": [],
      "stateMutability": "nonpayable",
      "type": "function"
    },
    {
      "inputs": [
        {
          "internalType": "address",
          "name": "from",
          "type": "address"
        },
        {
          "internalType": "address",
          "name": "to",
          "type": "address"
        },
        {
          "internalType": "uint256",
          "name": "tokenId",
          "type": "uint256"
        },
        {
          "internalType": "bytes",
          "name": "_data",
          "type": "bytes"
        }
      ],
      "name": "safeTransferFrom",
      "outputs": [],
      "stateMutability": "nonpayable",
      "type": "function"
    },
    {
      "inputs": [
        {
          "internalType": "address",
          "name": "operator",
          "type": "address"
        },
        {
          "internalType": "bool",
          "name": "approved",
          "type": "bool"
        }
      ],
      "name": "setApprovalForAll",
      "outputs": [],
      "stateMutability": "nonpayable",
      "type": "function"
    },
    {
      "inputs": [
        {
          "internalType": "bytes4",
          "name": "interfaceId",
          "type": "bytes4"
        }
      ],
      "name": "supportsInterface",
      "outputs": [
        {
          "internalType": "bool",
          "name": "",
          "type": "bool"
        }
      ],
      "stateMutability": "view",
      "type": "function",
      "constant": true
    },
    {
      "inputs": [],
      "name": "symbol",
      "outputs": [
        {
          "internalType": "string",
          "name": "",
          "type": "string"
        }
      ],
      "stateMutability": "view",
      "type": "function",
      "constant": true
    },
    {
      "inputs": [
        {
          "internalType": "uint256",
          "name": "index",
          "type": "uint256"
        }
      ],
      "name": "tokenByIndex",
      "outputs": [
        {
          "internalType": "uint256",
          "name": "",
          "type": "uint256"
        }
      ],
      "stateMutability": "view",
      "type": "function",
      "constant": true
    },
    {
      "inputs": [
        {
          "internalType": "uint256",
          "name": "tokenId",
          "type": "uint256"
        }
      ],
      "name": "tokenURI",
      "outputs": [
        {
          "internalType": "string",
          "name": "",
          "type": "string"
        }
      ],
      "stateMutability": "view",
      "type": "function",
      "constant": true
    },
    {
      "inputs": [],
      "name": "totalSupply",
      "outputs": [
        {
          "internalType": "uint256",
          "name": "",
          "type": "uint256"
        }
      ],
      "stateMutability": "view",
      "type": "function",
      "constant": true
    },
    {
      "inputs": [
        {
          "internalType": "address",
          "name": "from",
          "type": "address"
        },
        {
          "internalType": "address",
          "name": "to",
          "type": "address"
        },
        {
          "internalType": "uint256",
          "name": "tokenId",
          "type": "uint256"
        }
      ],
      "name": "transferFrom",
      "outputs": [],
      "stateMutability": "nonpayable",
      "type": "function"
    },
    {
      "inputs": [
        {
          "internalType": "address",
          "name": "account",
          "type": "address"
        }
      ],
      "name": "isBreeder",
      "outputs": [
        {
          "internalType": "bool",
          "name": "",
          "type": "bool"
        }
      ],
      "stateMutability": "nonpayable",
      "type": "function"
    },
    {
      "inputs": [],
      "name": "registrationPrice",
      "outputs": [
        {
          "internalType": "uint256",
          "name": "",
          "type": "uint256"
        }
      ],
      "stateMutability": "nonpayable",
      "type": "function"
    },
    {
      "inputs": [],
      "name": "registerMeAsBreeder",
      "outputs": [],
      "stateMutability": "payable",
      "type": "function",
      "payable": true
    },
    {
      "inputs": [
        {
          "internalType": "uint256",
          "name": "sex",
          "type": "uint256"
        },
        {
          "internalType": "uint256",
          "name": "legs",
          "type": "uint256"
        },
        {
          "internalType": "bool",
          "name": "wings",
          "type": "bool"
        },
        {
          "internalType": "string",
          "name": "name",
          "type": "string"
        }
      ],
      "name": "declareAnimal",
      "outputs": [
        {
          "internalType": "uint256",
          "name": "",
          "type": "uint256"
        }
      ],
      "stateMutability": "nonpayable",
      "type": "function"
    },
    {
      "inputs": [
        {
          "internalType": "uint256",
          "name": "animalNumber",
          "type": "uint256"
        }
      ],
      "name": "getAnimalCharacteristics",
      "outputs": [
        {
          "internalType": "string",
          "name": "_name",
          "type": "string"
        },
        {
          "internalType": "bool",
          "name": "_wings",
          "type": "bool"
        },
        {
          "internalType": "uint256",
          "name": "_legs",
          "type": "uint256"
        },
        {
          "internalType": "uint256",
          "name": "_sex",
          "type": "uint256"
        }
      ],
      "stateMutability": "nonpayable",
      "type": "function"
    },
    {
      "inputs": [
        {
          "internalType": "uint256",
          "name": "animalNumber",
          "type": "uint256"
        }
      ],
      "name": "declareDeadAnimal",
      "outputs": [],
      "stateMutability": "nonpayable",
      "type": "function"
    },
    {
      "inputs": [
        {
          "internalType": "address",
          "name": "owner",
          "type": "address"
        },
        {
          "internalType": "uint256",
          "name": "index",
          "type": "uint256"
        }
      ],
      "name": "tokenOfOwnerByIndex",
      "outputs": [
        {
          "internalType": "uint256",
          "name": "",
          "type": "uint256"
        }
      ],
      "stateMutability": "view",
      "type": "function",
      "constant": true
    },
    {
      "inputs": [
        {
          "internalType": "uint256",
          "name": "animalNumber",
          "type": "uint256"
        }
      ],
      "name": "isAnimalForSale",
      "outputs": [
        {
          "internalType": "bool",
          "name": "",
          "type": "bool"
        }
      ],
      "stateMutability": "view",
      "type": "function",
      "constant": true
    },
    {
      "inputs": [
        {
          "internalType": "uint256",
          "name": "animalNumber",
          "type": "uint256"
        }
      ],
      "name": "animalPrice",
      "outputs": [
        {
          "internalType": "uint256",
          "name": "",
          "type": "uint256"
        }
      ],
      "stateMutability": "view",
      "type": "function",
      "constant": true
    },
    {
      "inputs": [
        {
          "internalType": "uint256",
          "name": "animalNumber",
          "type": "uint256"
        }
      ],
      "name": "buyAnimal",
      "outputs": [],
      "stateMutability": "payable",
      "type": "function",
      "payable": true
    },
    {
      "inputs": [
        {
          "internalType": "uint256",
          "name": "animalNumber",
          "type": "uint256"
        },
        {
          "internalType": "uint256",
          "name": "price",
          "type": "uint256"
        }
      ],
      "name": "offerForSale",
      "outputs": [],
      "stateMutability": "nonpayable",
      "type": "function"
    },
    {
      "inputs": [
        {
          "internalType": "uint256",
          "name": "sex",
          "type": "uint256"
        },
        {
          "internalType": "uint256",
          "name": "legs",
          "type": "uint256"
        },
        {
          "internalType": "bool",
          "name": "wings",
          "type": "bool"
        },
        {
          "internalType": "string",
          "name": "name",
          "type": "string"
        },
        {
          "internalType": "uint256",
          "name": "parent1",
          "type": "uint256"
        },
        {
          "internalType": "uint256",
          "name": "parent2",
          "type": "uint256"
        }
      ],
      "name": "declareAnimalWithParents",
      "outputs": [
        {
          "internalType": "uint256",
          "name": "",
          "type": "uint256"
        }
      ],
      "stateMutability": "nonpayable",
      "type": "function"
    },
    {
      "inputs": [
        {
          "internalType": "uint256",
          "name": "animalNumber",
          "type": "uint256"
        }
      ],
      "name": "getParents",
      "outputs": [
        {
          "internalType": "uint256",
          "name": "",
          "type": "uint256"
        },
        {
          "internalType": "uint256",
          "name": "",
          "type": "uint256"
        }
      ],
      "stateMutability": "nonpayable",
      "type": "function"
    },
    {
      "inputs": [
        {
          "internalType": "uint256",
          "name": "animalNumber",
          "type": "uint256"
        }
      ],
      "name": "canReproduce",
      "outputs": [
        {
          "internalType": "bool",
          "name": "",
          "type": "bool"
        }
      ],
      "stateMutability": "nonpayable",
      "type": "function"
    },
    {
      "inputs": [
        {
          "internalType": "uint256",
          "name": "animalNumber",
          "type": "uint256"
        }
      ],
      "name": "reproductionPrice",
      "outputs": [
        {
          "internalType": "uint256",
          "name": "",
          "type": "uint256"
        }
      ],
      "stateMutability": "view",
      "type": "function",
      "constant": true
    },
    {
      "inputs": [
        {
          "internalType": "uint256",
          "name": "animalNumber",
          "type": "uint256"
        },
        {
          "internalType": "uint256",
          "name": "priceOfReproduction",
          "type": "uint256"
        }
      ],
      "name": "offerForReproduction",
      "outputs": [
        {
          "internalType": "uint256",
          "name": "",
          "type": "uint256"
        }
      ],
      "stateMutability": "nonpayable",
      "type": "function"
    }
  ],
  "bytecode": "0x60806040526001600a60006101000a81548160ff0219169083151502179055506000600c556000600d60006101000a81548160ff0219169083151502179055506000600f60006101000a81548160ff0219169083151502179055503480156200006757600080fd5b506040518060400160405280600b81526020017f4e46542d4578616d706c650000000000000000000000000000000000000000008152506040518060400160405280600381526020017f4e45580000000000000000000000000000000000000000000000000000000000815250620000ec6301ffc9a760e01b6200074660201b60201c565b81600690805190602001906200010492919062000cac565b5080600790805190602001906200011d92919062000cac565b50620001366380ac58cd60e01b6200074660201b60201c565b6200014e635b5e139f60e01b6200074660201b60201c565b6200016663780e9d6360e01b6200074660201b60201c565b50506200018f73a0b9f62a0dc5ccc21cfb71ba70070c3e1c66510e60016200084f60201b60201c565b600b60405180610140016040528060008152602001600081526020016000151581526020016040518060200160405280600081525081526020016000151581526020016000815260200160c8815260200161012c8152602001600015158152602001600081525090806001815401808255809150506001900390600052602060002090600a0201600090919091909150600082015181600001556020820151816001015560408201518160020160006101000a81548160ff02191690831515021790555060608201518160030190805190602001906200027192919062000d33565b5060808201518160040160006101000a81548160ff02191690831515021790555060a0820151816005015560c0820151816006015560e082015181600701556101008201518160080160006101000a81548160ff0219169083151502179055506101208201518160090155505062000305737bb1aeb48f28c51e7f83506861ac7af33cd92f3560006200084f60201b60201c565b600b60405180610140016040528060008152602001600081526020016000151581526020016040518060200160405280600081525081526020016000151581526020016000815260200160c8815260200161012c8152602001600015158152602001600081525090806001815401808255809150506001900390600052602060002090600a0201600090919091909150600082015181600001556020820151816001015560408201518160020160006101000a81548160ff0219169083151502179055506060820151816003019080519060200190620003e792919062000d33565b5060808201518160040160006101000a81548160ff02191690831515021790555060a0820151816005015560c0820151816006015560e082015181600701556101008201518160080160006101000a81548160ff021916908315150217905550610120820151816009015550506200047b733ac9c4a2347e564603730a0d88ea7b41194569ba60026200084f60201b60201c565b600b60405180610140016040528060008152602001600081526020016000151581526020016040518060200160405280600081525081526020016001151581526020016000815260200160c8815260200161012c8152602001600015158152602001600081525090806001815401808255809150506001900390600052602060002090600a0201600090919091909150600082015181600001556020820151816001015560408201518160020160006101000a81548160ff02191690831515021790555060608201518160030190805190602001906200055d92919062000d33565b5060808201518160040160006101000a81548160ff02191690831515021790555060a0820151816005015560c0820151816006015560e082015181600701556101008201518160080160006101000a81548160ff02191690831515021790555061012082015181600901555050620005f1737bb1aeb48f28c51e7f83506861ac7af33cd92f3560036200084f60201b60201c565b600b60405180610140016040528060008152602001600081526020016000151581526020016040518060200160405280600081525081526020016000151581526020016000815260200160c8815260200161012c8152602001600015158152602001600081525090806001815401808255809150506001900390600052602060002090600a0201600090919091909150600082015181600001556020820151816001015560408201518160020160006101000a81548160ff0219169083151502179055506060820151816003019080519060200190620006d392919062000d33565b5060808201518160040160006101000a81548160ff02191690831515021790555060a0820151816005015560c0820151816006015560e082015181600701556101008201518160080160006101000a81548160ff0219169083151502179055506101208201518160090155505062000de2565b63ffffffff60e01b817bffffffffffffffffffffffffffffffffffffffffffffffffffffffff19161415620007e3576040517f08c379a000000000000000000000000000000000000000000000000000000000815260040180806020018281038252601c8152602001807f4552433136353a20696e76616c696420696e746572666163652069640000000081525060200191505060405180910390fd5b6001600080837bffffffffffffffffffffffffffffffffffffffffffffffffffffffff19167bffffffffffffffffffffffffffffffffffffffffffffffffffffffff1916815260200190815260200160002060006101000a81548160ff02191690831515021790555050565b600073ffffffffffffffffffffffffffffffffffffffff168273ffffffffffffffffffffffffffffffffffffffff161415620008f3576040517f08c379a00000000000000000000000000000000000000000000000000000000081526004018080602001828103825260208152602001807f4552433732313a206d696e7420746f20746865207a65726f206164647265737381525060200191505060405180910390fd5b620009048162000a6360201b60201c565b1562000978576040517f08c379a000000000000000000000000000000000000000000000000000000000815260040180806020018281038252601c8152602001807f4552433732313a20746f6b656e20616c7265616479206d696e7465640000000081525060200191505060405180910390fd5b6200098c6000838362000a8760201b60201c565b620009e481600160008573ffffffffffffffffffffffffffffffffffffffff1673ffffffffffffffffffffffffffffffffffffffff16815260200190815260200160002062000a8c60201b6200311f1790919060201c565b5062000a028183600262000aae60201b62003139179092919060201c565b50808273ffffffffffffffffffffffffffffffffffffffff16600073ffffffffffffffffffffffffffffffffffffffff167fddf252ad1be2c89b69c2b068fc378daa952ba7f163c4a11628f55a4df523b3ef60405160405180910390a45050565b600062000a8082600262000aeb60201b620030d51790919060201c565b9050919050565b505050565b600062000aa6836000018360001b62000b0d60201b60201c565b905092915050565b600062000ae2846000018460001b8473ffffffffffffffffffffffffffffffffffffffff1660001b62000b8760201b60201c565b90509392505050565b600062000b05836000018360001b62000c6660201b60201c565b905092915050565b600062000b21838362000c8960201b60201c565b62000b7c57826000018290806001815401808255809150506001900390600052602060002001600090919091909150558260000180549050836001016000848152602001908152602001600020819055506001905062000b81565b600090505b92915050565b600080846001016000858152602001908152602001600020549050600081141562000c305784600001604051806040016040528086815260200185815250908060018154018082558091505060019003906000526020600020906002020160009091909190915060008201518160000155602082015181600101555050846000018054905085600101600086815260200190815260200160002081905550600191505062000c5f565b8285600001600183038154811062000c4457fe5b90600052602060002090600202016001018190555060009150505b9392505050565b600080836001016000848152602001908152602001600020541415905092915050565b600080836001016000848152602001908152602001600020541415905092915050565b828054600181600116156101000203166002900490600052602060002090601f016020900481019282601f1062000cef57805160ff191683800117855562000d20565b8280016001018555821562000d20579182015b8281111562000d1f57825182559160200191906001019062000d02565b5b50905062000d2f919062000dba565b5090565b828054600181600116156101000203166002900490600052602060002090601f016020900481019282601f1062000d7657805160ff191683800117855562000da7565b8280016001018555821562000da7579182015b8281111562000da657825182559160200191906001019062000d89565b5b50905062000db6919062000dba565b5090565b62000ddf91905b8082111562000ddb57600081600090555060010162000dc1565b5090565b90565b613f6e8062000df26000396000f3fe60806040526004361061021a5760003560e01c80636352211e11610123578063b75e0750116100ab578063c87b56dd1161006f578063c87b56dd14610fcb578063e985e9c51461107f578063ec89777214611108578063efd6461014611143578063faa299f0146112425761021a565b8063b75e075014610d05578063b88d4fde14610dd2578063c5f51f7314610ee4578063c65e9c7914610f37578063c7b9cb0b14610f625761021a565b80637e054af4116100f25780637e054af414610a80578063929c13e314610aaf57806395d89b4114610bbf578063a0c32c8f14610c4f578063a22cb46514610ca85761021a565b80636352211e146108cb5780636c0360eb1461094657806370a08231146109d657806377386df314610a3b5761021a565b80632a4672b2116101a65780633df6db72116101755780633df6db721461075557806341d30bae146107a457806342842e0e146107ae5780634abda8c8146108295780634f6ccce71461087c5761021a565b80632a4672b21461054c5780632f745c591461059b57806332b0f3761461060a5780633573dbd1146107065761021a565b806318160ddd116101ed57806318160ddd146103f75780631a14e94a14610422578063216586581461045057806323b872dd1461047b578063242a0087146104f65761021a565b806301ffc9a71461021f57806306fdde0314610291578063081812fc14610321578063095ea7b31461039c575b600080fd5b34801561022b57600080fd5b506102776004803603602081101561024257600080fd5b8101908080357bffffffffffffffffffffffffffffffffffffffffffffffffffffffff19169060200190929190505050611271565b604051808215151515815260200191505060405180910390f35b34801561029d57600080fd5b506102a66112d8565b6040518080602001828103825283818151815260200191508051906020019080838360005b838110156102e65780820151818401526020810190506102cb565b50505050905090810190601f1680156103135780820380516001836020036101000a031916815260200191505b509250505060405180910390f35b34801561032d57600080fd5b5061035a6004803603602081101561034457600080fd5b810190808035906020019092919050505061137a565b604051808273ffffffffffffffffffffffffffffffffffffffff1673ffffffffffffffffffffffffffffffffffffffff16815260200191505060405180910390f35b3480156103a857600080fd5b506103f5600480360360408110156103bf57600080fd5b81019080803573ffffffffffffffffffffffffffffffffffffffff16906020019092919080359060200190929190505050611415565b005b34801561040357600080fd5b5061040c611559565b6040518082815260200191505060405180910390f35b61044e6004803603602081101561043857600080fd5b810190808035906020019092919050505061156a565b005b34801561045c57600080fd5b506104656115bc565b6040518082815260200191505060405180910390f35b34801561048757600080fd5b506104f46004803603606081101561049e57600080fd5b81019080803573ffffffffffffffffffffffffffffffffffffffff169060200190929190803573ffffffffffffffffffffffffffffffffffffffff169060200190929190803590602001909291905050506115c4565b005b34801561050257600080fd5b5061052f6004803603602081101561051957600080fd5b810190808035906020019092919050505061163a565b604051808381526020018281526020019250505060405180910390f35b34801561055857600080fd5b506105856004803603602081101561056f57600080fd5b8101908080359060200190929190505050611684565b6040518082815260200191505060405180910390f35b3480156105a757600080fd5b506105f4600480360360408110156105be57600080fd5b81019080803573ffffffffffffffffffffffffffffffffffffffff169060200190929190803590602001909291905050506116ac565b6040518082815260200191505060405180910390f35b34801561061657600080fd5b506106f06004803603608081101561062d57600080fd5b8101908080359060200190929190803590602001909291908035151590602001909291908035906020019064010000000081111561066a57600080fd5b82018360208201111561067c57600080fd5b8035906020019184600183028401116401000000008311171561069e57600080fd5b91908080601f016020809104026020016040519081016040528093929190818152602001838380828437600081840152601f19601f82011690508083019250505050505050919291929050505061170a565b6040518082815260200191505060405180910390f35b34801561071257600080fd5b5061073f6004803603602081101561072957600080fd5b810190808035906020019092919050505061186a565b6040518082815260200191505060405180910390f35b34801561076157600080fd5b5061078e6004803603602081101561077857600080fd5b8101908080359060200190929190505050611892565b6040518082815260200191505060405180910390f35b6107ac6118aa565b005b3480156107ba57600080fd5b50610827600480360360608110156107d157600080fd5b81019080803573ffffffffffffffffffffffffffffffffffffffff169060200190929190803573ffffffffffffffffffffffffffffffffffffffff169060200190929190803590602001909291905050506118c7565b005b34801561083557600080fd5b506108626004803603602081101561084c57600080fd5b81019080803590602001909291905050506118e7565b604051808215151515815260200191505060405180910390f35b34801561088857600080fd5b506108b56004803603602081101561089f57600080fd5b810190808035906020019092919050505061191c565b6040518082815260200191505060405180910390f35b3480156108d757600080fd5b50610904600480360360208110156108ee57600080fd5b810190808035906020019092919050505061193f565b604051808273ffffffffffffffffffffffffffffffffffffffff1673ffffffffffffffffffffffffffffffffffffffff16815260200191505060405180910390f35b34801561095257600080fd5b5061095b611976565b6040518080602001828103825283818151815260200191508051906020019080838360005b8381101561099b578082015181840152602081019050610980565b50505050905090810190601f1680156109c85780820380516001836020036101000a031916815260200191505b509250505060405180910390f35b3480156109e257600080fd5b50610a25600480360360208110156109f957600080fd5b81019080803573ffffffffffffffffffffffffffffffffffffffff169060200190929190505050611a18565b6040518082815260200191505060405180910390f35b348015610a4757600080fd5b50610a7e60048036036040811015610a5e57600080fd5b810190808035906020019092919080359060200190929190505050611aed565b005b348015610a8c57600080fd5b50610a95611b4b565b604051808215151515815260200191505060405180910390f35b348015610abb57600080fd5b50610ba9600480360360c0811015610ad257600080fd5b81019080803590602001909291908035906020019092919080351515906020019092919080359060200190640100000000811115610b0f57600080fd5b820183602082011115610b2157600080fd5b80359060200191846001830284011164010000000083111715610b4357600080fd5b91908080601f016020809104026020016040519081016040528093929190818152602001838380828437600081840152601f19601f8201169050808301925050505050505091929192908035906020019092919080359060200190929190505050611b5e565b6040518082815260200191505060405180910390f35b348015610bcb57600080fd5b50610bd4611cbd565b6040518080602001828103825283818151815260200191508051906020019080838360005b83811015610c14578082015181840152602081019050610bf9565b50505050905090810190601f168015610c415780820380516001836020036101000a031916815260200191505b509250505060405180910390f35b348015610c5b57600080fd5b50610c9260048036036040811015610c7257600080fd5b810190808035906020019092919080359060200190929190505050611d5f565b6040518082815260200191505060405180910390f35b348015610cb457600080fd5b50610d0360048036036040811015610ccb57600080fd5b81019080803573ffffffffffffffffffffffffffffffffffffffff169060200190929190803515159060200190929190505050611e15565b005b348015610d1157600080fd5b50610d3e60048036036020811015610d2857600080fd5b8101908080359060200190929190505050611fcd565b604051808060200185151515158152602001848152602001838152602001828103825286818151815260200191508051906020019080838360005b83811015610d94578082015181840152602081019050610d79565b50505050905090810190601f168015610dc15780820380516001836020036101000a031916815260200191505b509550505050505060405180910390f35b348015610dde57600080fd5b50610ee260048036036080811015610df557600080fd5b81019080803573ffffffffffffffffffffffffffffffffffffffff169060200190929190803573ffffffffffffffffffffffffffffffffffffffff1690602001909291908035906020019092919080359060200190640100000000811115610e5c57600080fd5b820183602082011115610e6e57600080fd5b80359060200191846001830284011164010000000083111715610e9057600080fd5b91908080601f016020809104026020016040519081016040528093929190818152602001838380828437600081840152601f19601f820116905080830192505050505050509192919290505050612107565b005b348015610ef057600080fd5b50610f1d60048036036020811015610f0757600080fd5b810190808035906020019092919050505061217f565b604051808215151515815260200191505060405180910390f35b348015610f4357600080fd5b50610f4c6121b4565b6040518082815260200191505060405180910390f35b348015610f6e57600080fd5b50610fb160048036036020811015610f8557600080fd5b81019080803573ffffffffffffffffffffffffffffffffffffffff1690602001909291905050506121ba565b604051808215151515815260200191505060405180910390f35b348015610fd757600080fd5b5061100460048036036020811015610fee57600080fd5b81019080803590602001909291905050506121d3565b6040518080602001828103825283818151815260200191508051906020019080838360005b83811015611044578082015181840152602081019050611029565b50505050905090810190601f1680156110715780820380516001836020036101000a031916815260200191505b509250505060405180910390f35b34801561108b57600080fd5b506110ee600480360360408110156110a257600080fd5b81019080803573ffffffffffffffffffffffffffffffffffffffff169060200190929190803573ffffffffffffffffffffffffffffffffffffffff1690602001909291905050506124a4565b604051808215151515815260200191505060405180910390f35b34801561111457600080fd5b506111416004803603602081101561112b57600080fd5b8101908080359060200190929190505050612538565b005b34801561114f57600080fd5b5061117c6004803603602081101561116657600080fd5b8101908080359060200190929190505050612645565b604051808b81526020018a815260200189151515158152602001806020018815151515815260200187815260200186815260200185815260200184151515158152602001838152602001828103825289818151815260200191508051906020019080838360005b838110156111fe5780820151818401526020810190506111e3565b50505050905090810190601f16801561122b5780820380516001836020036101000a031916815260200191505b509b50505050505050505050505060405180910390f35b34801561124e57600080fd5b50611257612765565b604051808215151515815260200191505060405180910390f35b6000806000837bffffffffffffffffffffffffffffffffffffffffffffffffffffffff19167bffffffffffffffffffffffffffffffffffffffffffffffffffffffff1916815260200190815260200160002060009054906101000a900460ff169050919050565b606060068054600181600116156101000203166002900480601f0160208091040260200160405190810160405280929190818152602001828054600181600116156101000203166002900480156113705780601f1061134557610100808354040283529160200191611370565b820191906000526020600020905b81548152906001019060200180831161135357829003601f168201915b5050505050905090565b600061138582612778565b6113da576040517f08c379a000000000000000000000000000000000000000000000000000000000815260040180806020018281038252602c815260200180613e63602c913960400191505060405180910390fd5b6004600083815260200190815260200160002060009054906101000a900473ffffffffffffffffffffffffffffffffffffffff169050919050565b60006114208261193f565b90508073ffffffffffffffffffffffffffffffffffffffff168373ffffffffffffffffffffffffffffffffffffffff1614156114a7576040517f08c379a0000000000000000000000000000000000000000000000000000000008152600401808060200182810382526021815260200180613ee76021913960400191505060405180910390fd5b8073ffffffffffffffffffffffffffffffffffffffff166114c6612795565b73ffffffffffffffffffffffffffffffffffffffff1614806114f557506114f4816114ef612795565b6124a4565b5b61154a576040517f08c379a0000000000000000000000000000000000000000000000000000000008152600401808060200182810382526038815260200180613db66038913960400191505060405180910390fd5b611554838361279d565b505050565b60006115656002612856565b905090565b60011515600b828154811061157b57fe5b90600052602060002090600a020160040160009054906101000a900460ff161515146115a657600080fd5b6115b96115b28261193f565b338361286b565b50565b600080905090565b6115d56115cf612795565b82612aae565b61162a576040517f08c379a0000000000000000000000000000000000000000000000000000000008152600401808060200182810382526031815260200180613f086031913960400191505060405180910390fd5b61163583838361286b565b505050565b600080600b838154811061164a57fe5b90600052602060002090600a020160060154600b848154811061166957fe5b90600052602060002090600a02016007015491509150915091565b6000600b828154811061169357fe5b90600052602060002090600a0201600901549050919050565b6000737bb1aeb48f28c51e7f83506861ac7af33cd92f3573ffffffffffffffffffffffffffffffffffffffff168373ffffffffffffffffffffffffffffffffffffffff1614156116ff5760009050611704565b600190505b92915050565b6000600b60405180610140016040528087815260200186815260200185151581526020018481526020016000151581526020016000815260200160c8815260200161012c8152602001600015158152602001600081525090806001815401808255809150506001900390600052602060002090600a0201600090919091909150600082015181600001556020820151816001015560408201518160020160006101000a81548160ff02191690831515021790555060608201518160030190805190602001906117da929190613ba0565b5060808201518160040160006101000a81548160ff02191690831515021790555060a0820151816005015560c0820151816006015560e082015181600701556101008201518160080160006101000a81548160ff0219169083151502179055506101208201518160090155505060006001600b8054905003905061185e3382612ba2565b80915050949350505050565b6000600b828154811061187957fe5b90600052602060002090600a0201600501549050919050565b600e6020528060005260406000206000915090505481565b6001600a60006101000a81548160ff021916908315150217905550565b6118e283838360405180602001604052806000815250612107565b505050565b6000600b82815481106118f657fe5b90600052602060002090600a020160080160009054906101000a900460ff169050919050565b600080611933836002612d9690919063ffffffff16565b50905080915050919050565b600061196f82604051806060016040528060298152602001613e18602991396002612dc59092919063ffffffff16565b9050919050565b606060098054600181600116156101000203166002900480601f016020809104026020016040519081016040528092919081815260200182805460018160011615610100020316600290048015611a0e5780601f106119e357610100808354040283529160200191611a0e565b820191906000526020600020905b8154815290600101906020018083116119f157829003601f168201915b5050505050905090565b60008073ffffffffffffffffffffffffffffffffffffffff168273ffffffffffffffffffffffffffffffffffffffff161415611a9f576040517f08c379a000000000000000000000000000000000000000000000000000000000815260040180806020018281038252602a815260200180613dee602a913960400191505060405180910390fd5b611ae6600160008473ffffffffffffffffffffffffffffffffffffffff1673ffffffffffffffffffffffffffffffffffffffff168152602001908152602001600020612de4565b9050919050565b6001600b8381548110611afc57fe5b90600052602060002090600a020160040160006101000a81548160ff02191690831515021790555080600b8381548110611b3257fe5b90600052602060002090600a0201600501819055505050565b600f60009054906101000a900460ff1681565b6000600b604051806101400160405280898152602001888152602001871515815260200186815260200160001515815260200160008152602001858152602001848152602001600015158152602001600081525090806001815401808255809150506001900390600052602060002090600a0201600090919091909150600082015181600001556020820151816001015560408201518160020160006101000a81548160ff0219169083151502179055506060820151816003019080519060200190611c2b929190613ba0565b5060808201518160040160006101000a81548160ff02191690831515021790555060a0820151816005015560c0820151816006015560e082015181600701556101008201518160080160006101000a81548160ff0219169083151502179055506101208201518160090155505060006001600b80549050039050611caf3382612ba2565b809150509695505050505050565b606060078054600181600116156101000203166002900480601f016020809104026020016040519081016040528092919081815260200182805460018160011615610100020316600290048015611d555780601f10611d2a57610100808354040283529160200191611d55565b820191906000526020600020905b815481529060010190602001808311611d3857829003601f168201915b5050505050905090565b60003373ffffffffffffffffffffffffffffffffffffffff16611d818461193f565b73ffffffffffffffffffffffffffffffffffffffff161415611dfc576001600b8481548110611dac57fe5b90600052602060002090600a020160080160006101000a81548160ff02191690831515021790555081600b8481548110611de257fe5b90600052602060002090600a020160090181905550611e0b565b6002600114611e0a57600080fd5b5b6001905092915050565b611e1d612795565b73ffffffffffffffffffffffffffffffffffffffff168273ffffffffffffffffffffffffffffffffffffffff161415611ebe576040517f08c379a00000000000000000000000000000000000000000000000000000000081526004018080602001828103825260198152602001807f4552433732313a20617070726f766520746f2063616c6c65720000000000000081525060200191505060405180910390fd5b8060056000611ecb612795565b73ffffffffffffffffffffffffffffffffffffffff1673ffffffffffffffffffffffffffffffffffffffff16815260200190815260200160002060008473ffffffffffffffffffffffffffffffffffffffff1673ffffffffffffffffffffffffffffffffffffffff16815260200190815260200160002060006101000a81548160ff0219169083151502179055508173ffffffffffffffffffffffffffffffffffffffff16611f78612795565b73ffffffffffffffffffffffffffffffffffffffff167f17307eab39ab6107e8899845ad3d59bd9653f200f220920489ca2b5937696c3183604051808215151515815260200191505060405180910390a35050565b60606000806000600b8581548110611fe157fe5b90600052602060002090600a0201600301600b8681548110611fff57fe5b90600052602060002090600a020160020160009054906101000a900460ff16600b878154811061202b57fe5b90600052602060002090600a020160010154600b888154811061204a57fe5b90600052602060002090600a020160000154838054600181600116156101000203166002900480601f0160208091040260200160405190810160405280929190818152602001828054600181600116156101000203166002900480156120f15780601f106120c6576101008083540402835291602001916120f1565b820191906000526020600020905b8154815290600101906020018083116120d457829003601f168201915b5050505050935093509350935093509193509193565b612118612112612795565b83612aae565b61216d576040517f08c379a0000000000000000000000000000000000000000000000000000000008152600401808060200182810382526031815260200180613f086031913960400191505060405180910390fd5b61217984848484612df9565b50505050565b6000600b828154811061218e57fe5b90600052602060002090600a020160040160009054906101000a900460ff169050919050565b600c5481565b6000600a60009054906101000a900460ff169050919050565b60606121de82612778565b612233576040517f08c379a000000000000000000000000000000000000000000000000000000000815260040180806020018281038252602f815260200180613eb8602f913960400191505060405180910390fd5b6060600860008481526020019081526020016000208054600181600116156101000203166002900480601f0160208091040260200160405190810160405280929190818152602001828054600181600116156101000203166002900480156122dc5780601f106122b1576101008083540402835291602001916122dc565b820191906000526020600020905b8154815290600101906020018083116122bf57829003601f168201915b5050505050905060606122ed611976565b905060008151141561230357819250505061249f565b6000825111156123d45780826040516020018083805190602001908083835b602083106123455780518252602082019150602081019050602083039250612322565b6001836020036101000a03801982511681845116808217855250505050505090500182805190602001908083835b602083106123965780518252602082019150602081019050602083039250612373565b6001836020036101000a038019825116818451168082178552505050505050905001925050506040516020818303038152906040529250505061249f565b806123de85612e6b565b6040516020018083805190602001908083835b6020831061241457805182526020820191506020810190506020830392506123f1565b6001836020036101000a03801982511681845116808217855250505050505090500182805190602001908083835b602083106124655780518252602082019150602081019050602083039250612442565b6001836020036101000a03801982511681845116808217855250505050505090500192505050604051602081830303815290604052925050505b919050565b6000600560008473ffffffffffffffffffffffffffffffffffffffff1673ffffffffffffffffffffffffffffffffffffffff16815260200190815260200160002060008373ffffffffffffffffffffffffffffffffffffffff1673ffffffffffffffffffffffffffffffffffffffff16815260200190815260200160002060009054906101000a900460ff16905092915050565b3373ffffffffffffffffffffffffffffffffffffffff166125588261193f565b73ffffffffffffffffffffffffffffffffffffffff161461257857600080fd5b61258181612f9b565b6000600b828154811061259057fe5b90600052602060002090600a020160020160006101000a81548160ff0219169083151502179055506000600b82815481106125c757fe5b90600052602060002090600a0201600101819055506000600b82815481106125eb57fe5b90600052602060002090600a02016000018190555060405180602001604052806000815250600b828154811061261d57fe5b90600052602060002090600a02016003019080519060200190612641929190613c20565b5050565b600b818154811061265257fe5b90600052602060002090600a02016000915090508060000154908060010154908060020160009054906101000a900460ff1690806003018054600181600116156101000203166002900480601f01602080910402602001604051908101604052809291908181526020018280546001816001161561010002031660029004801561271d5780601f106126f25761010080835404028352916020019161271d565b820191906000526020600020905b81548152906001019060200180831161270057829003601f168201915b5050505050908060040160009054906101000a900460ff16908060050154908060060154908060070154908060080160009054906101000a900460ff1690806009015490508a565b600d60009054906101000a900460ff1681565b600061278e8260026130d590919063ffffffff16565b9050919050565b600033905090565b816004600083815260200190815260200160002060006101000a81548173ffffffffffffffffffffffffffffffffffffffff021916908373ffffffffffffffffffffffffffffffffffffffff160217905550808273ffffffffffffffffffffffffffffffffffffffff166128108361193f565b73ffffffffffffffffffffffffffffffffffffffff167f8c5be1e5ebec7d5bd14f71427d1e84f3dd0314c0f7b2291e5b200ac8c7c3b92560405160405180910390a45050565b6000612864826000016130ef565b9050919050565b8273ffffffffffffffffffffffffffffffffffffffff1661288b8261193f565b73ffffffffffffffffffffffffffffffffffffffff16146128f7576040517f08c379a0000000000000000000000000000000000000000000000000000000008152600401808060200182810382526029815260200180613e8f6029913960400191505060405180910390fd5b600073ffffffffffffffffffffffffffffffffffffffff168273ffffffffffffffffffffffffffffffffffffffff16141561297d576040517f08c379a0000000000000000000000000000000000000000000000000000000008152600401808060200182810382526024815260200180613d406024913960400191505060405180910390fd5b612988838383613100565b61299360008261279d565b6129e481600160008673ffffffffffffffffffffffffffffffffffffffff1673ffffffffffffffffffffffffffffffffffffffff16815260200190815260200160002061310590919063ffffffff16565b50612a3681600160008573ffffffffffffffffffffffffffffffffffffffff1673ffffffffffffffffffffffffffffffffffffffff16815260200190815260200160002061311f90919063ffffffff16565b50612a4d818360026131399092919063ffffffff16565b50808273ffffffffffffffffffffffffffffffffffffffff168473ffffffffffffffffffffffffffffffffffffffff167fddf252ad1be2c89b69c2b068fc378daa952ba7f163c4a11628f55a4df523b3ef60405160405180910390a4505050565b6000612ab982612778565b612b0e576040517f08c379a000000000000000000000000000000000000000000000000000000000815260040180806020018281038252602c815260200180613d8a602c913960400191505060405180910390fd5b6000612b198361193f565b90508073ffffffffffffffffffffffffffffffffffffffff168473ffffffffffffffffffffffffffffffffffffffff161480612b8857508373ffffffffffffffffffffffffffffffffffffffff16612b708461137a565b73ffffffffffffffffffffffffffffffffffffffff16145b80612b995750612b9881856124a4565b5b91505092915050565b600073ffffffffffffffffffffffffffffffffffffffff168273ffffffffffffffffffffffffffffffffffffffff161415612c45576040517f08c379a00000000000000000000000000000000000000000000000000000000081526004018080602001828103825260208152602001807f4552433732313a206d696e7420746f20746865207a65726f206164647265737381525060200191505060405180910390fd5b612c4e81612778565b15612cc1576040517f08c379a000000000000000000000000000000000000000000000000000000000815260040180806020018281038252601c8152602001807f4552433732313a20746f6b656e20616c7265616479206d696e7465640000000081525060200191505060405180910390fd5b612ccd60008383613100565b612d1e81600160008573ffffffffffffffffffffffffffffffffffffffff1673ffffffffffffffffffffffffffffffffffffffff16815260200190815260200160002061311f90919063ffffffff16565b50612d35818360026131399092919063ffffffff16565b50808273ffffffffffffffffffffffffffffffffffffffff16600073ffffffffffffffffffffffffffffffffffffffff167fddf252ad1be2c89b69c2b068fc378daa952ba7f163c4a11628f55a4df523b3ef60405160405180910390a45050565b600080600080612da9866000018661316e565b915091508160001c8160001c8090509350935050509250929050565b6000612dd8846000018460001b84613207565b60001c90509392505050565b6000612df2826000016132fd565b9050919050565b612e0484848461286b565b612e108484848461330e565b612e65576040517f08c379a0000000000000000000000000000000000000000000000000000000008152600401808060200182810382526032815260200180613d0e6032913960400191505060405180910390fd5b50505050565b60606000821415612eb3576040518060400160405280600181526020017f30000000000000000000000000000000000000000000000000000000000000008152509050612f96565b600082905060005b60008214612edd578080600101915050600a8281612ed557fe5b049150612ebb565b6060816040519080825280601f01601f191660200182016040528015612f125781602001600182028038833980820191505090505b50905060006001830390508593505b60008414612f8e57600a8481612f3357fe5b0660300160f81b82828060019003935081518110612f4d57fe5b60200101907effffffffffffffffffffffffffffffffffffffffffffffffffffffffffffff1916908160001a905350600a8481612f8657fe5b049350612f21565b819450505050505b919050565b6000612fa68261193f565b9050612fb481600084613100565b612fbf60008361279d565b6000600860008481526020019081526020016000208054600181600116156101000203166002900490501461300e5760086000838152602001908152602001600020600061300d9190613ca0565b5b61305f82600160008473ffffffffffffffffffffffffffffffffffffffff1673ffffffffffffffffffffffffffffffffffffffff16815260200190815260200160002061310590919063ffffffff16565b5061307482600261355390919063ffffffff16565b5081600073ffffffffffffffffffffffffffffffffffffffff168273ffffffffffffffffffffffffffffffffffffffff167fddf252ad1be2c89b69c2b068fc378daa952ba7f163c4a11628f55a4df523b3ef60405160405180910390a45050565b60006130e7836000018360001b61356d565b905092915050565b600081600001805490509050919050565b505050565b6000613117836000018360001b613590565b905092915050565b6000613131836000018360001b613678565b905092915050565b6000613165846000018460001b8473ffffffffffffffffffffffffffffffffffffffff1660001b6136e8565b90509392505050565b600080828460000180549050116131d0576040517f08c379a0000000000000000000000000000000000000000000000000000000008152600401808060200182810382526022815260200180613e416022913960400191505060405180910390fd5b60008460000184815481106131e157fe5b906000526020600020906002020190508060000154816001015492509250509250929050565b600080846001016000858152602001908152602001600020549050600081141583906132ce576040517f08c379a00000000000000000000000000000000000000000000000000000000081526004018080602001828103825283818151815260200191508051906020019080838360005b83811015613293578082015181840152602081019050613278565b50505050905090810190601f1680156132c05780820380516001836020036101000a031916815260200191505b509250505060405180910390fd5b508460000160018203815481106132e157fe5b9060005260206000209060020201600101549150509392505050565b600081600001805490509050919050565b600061332f8473ffffffffffffffffffffffffffffffffffffffff166137c4565b61333c576001905061354b565b60606134d263150b7a0260e01b613351612795565b888787604051602401808573ffffffffffffffffffffffffffffffffffffffff1673ffffffffffffffffffffffffffffffffffffffff1681526020018473ffffffffffffffffffffffffffffffffffffffff1673ffffffffffffffffffffffffffffffffffffffff16815260200183815260200180602001828103825283818151815260200191508051906020019080838360005b838110156134015780820151818401526020810190506133e6565b50505050905090810190601f16801561342e5780820380516001836020036101000a031916815260200191505b5095505050505050604051602081830303815290604052907bffffffffffffffffffffffffffffffffffffffffffffffffffffffff19166020820180517bffffffffffffffffffffffffffffffffffffffffffffffffffffffff8381831617835250505050604051806060016040528060328152602001613d0e603291398773ffffffffffffffffffffffffffffffffffffffff166137d79092919063ffffffff16565b905060008180602001905160208110156134eb57600080fd5b8101908080519060200190929190505050905063150b7a0260e01b7bffffffffffffffffffffffffffffffffffffffffffffffffffffffff1916817bffffffffffffffffffffffffffffffffffffffffffffffffffffffff191614925050505b949350505050565b6000613565836000018360001b6137ef565b905092915050565b600080836001016000848152602001908152602001600020541415905092915050565b6000808360010160008481526020019081526020016000205490506000811461366c57600060018203905060006001866000018054905003905060008660000182815481106135db57fe5b90600052602060002001549050808760000184815481106135f857fe5b906000526020600020018190555060018301876001016000838152602001908152602001600020819055508660000180548061363057fe5b60019003818190600052602060002001600090559055866001016000878152602001908152602001600020600090556001945050505050613672565b60009150505b92915050565b60006136848383613908565b6136dd5782600001829080600181540180825580915050600190039060005260206000200160009091909190915055826000018054905083600101600084815260200190815260200160002081905550600190506136e2565b600090505b92915050565b600080846001016000858152602001908152602001600020549050600081141561378f578460000160405180604001604052808681526020018581525090806001815401808255809150506001900390600052602060002090600202016000909190919091506000820151816000015560208201518160010155505084600001805490508560010160008681526020019081526020016000208190555060019150506137bd565b828560000160018303815481106137a257fe5b90600052602060002090600202016001018190555060009150505b9392505050565b600080823b905060008111915050919050565b60606137e6848460008561392b565b90509392505050565b600080836001016000848152602001908152602001600020549050600081146138fc576000600182039050600060018660000180549050039050600086600001828154811061383a57fe5b906000526020600020906002020190508087600001848154811061385a57fe5b90600052602060002090600202016000820154816000015560018201548160010155905050600183018760010160008360000154815260200190815260200160002081905550866000018054806138ad57fe5b6001900381819060005260206000209060020201600080820160009055600182016000905550509055866001016000878152602001908152602001600020600090556001945050505050613902565b60009150505b92915050565b600080836001016000848152602001908152602001600020541415905092915050565b606082471015613986576040517f08c379a0000000000000000000000000000000000000000000000000000000008152600401808060200182810382526026815260200180613d646026913960400191505060405180910390fd5b61398f856137c4565b613a01576040517f08c379a000000000000000000000000000000000000000000000000000000000815260040180806020018281038252601d8152602001807f416464726573733a2063616c6c20746f206e6f6e2d636f6e747261637400000081525060200191505060405180910390fd5b600060608673ffffffffffffffffffffffffffffffffffffffff1685876040518082805190602001908083835b60208310613a515780518252602082019150602081019050602083039250613a2e565b6001836020036101000a03801982511681845116808217855250505050505090500191505060006040518083038185875af1925050503d8060008114613ab3576040519150601f19603f3d011682016040523d82523d6000602084013e613ab8565b606091505b5091509150613ac8828286613ad4565b92505050949350505050565b60608315613ae457829050613b99565b600083511115613af75782518084602001fd5b816040517f08c379a00000000000000000000000000000000000000000000000000000000081526004018080602001828103825283818151815260200191508051906020019080838360005b83811015613b5e578082015181840152602081019050613b43565b50505050905090810190601f168015613b8b5780820380516001836020036101000a031916815260200191505b509250505060405180910390fd5b9392505050565b828054600181600116156101000203166002900490600052602060002090601f016020900481019282601f10613be157805160ff1916838001178555613c0f565b82800160010185558215613c0f579182015b82811115613c0e578251825591602001919060010190613bf3565b5b509050613c1c9190613ce8565b5090565b828054600181600116156101000203166002900490600052602060002090601f016020900481019282601f10613c6157805160ff1916838001178555613c8f565b82800160010185558215613c8f579182015b82811115613c8e578251825591602001919060010190613c73565b5b509050613c9c9190613ce8565b5090565b50805460018160011615610100020316600290046000825580601f10613cc65750613ce5565b601f016020900490600052602060002090810190613ce49190613ce8565b5b50565b613d0a91905b80821115613d06576000816000905550600101613cee565b5090565b9056fe4552433732313a207472616e7366657220746f206e6f6e20455243373231526563656976657220696d706c656d656e7465724552433732313a207472616e7366657220746f20746865207a65726f2061646472657373416464726573733a20696e73756666696369656e742062616c616e636520666f722063616c6c4552433732313a206f70657261746f7220717565727920666f72206e6f6e6578697374656e7420746f6b656e4552433732313a20617070726f76652063616c6c6572206973206e6f74206f776e6572206e6f7220617070726f76656420666f7220616c6c4552433732313a2062616c616e636520717565727920666f7220746865207a65726f20616464726573734552433732313a206f776e657220717565727920666f72206e6f6e6578697374656e7420746f6b656e456e756d657261626c654d61703a20696e646578206f7574206f6620626f756e64734552433732313a20617070726f76656420717565727920666f72206e6f6e6578697374656e7420746f6b656e4552433732313a207472616e73666572206f6620746f6b656e2074686174206973206e6f74206f776e4552433732314d657461646174613a2055524920717565727920666f72206e6f6e6578697374656e7420746f6b656e4552433732313a20617070726f76616c20746f2063757272656e74206f776e65724552433732313a207472616e736665722063616c6c6572206973206e6f74206f776e6572206e6f7220617070726f766564a26469706673582212204b62b09b9fba273e6e5d21425c153c62e56539aaab8180d6ab59ce3cbabeaa8764736f6c63430006020033",
  "source": "pragma solidity ^0.6.0;\r\nimport \"@openzeppelin/contracts/token/ERC721/ERC721.sol\";\r\ncontract Erc721td is ERC721 {\r\n\r\nbool breeder = true;\r\nstruct  Caract{\r\n    uint sex; \r\n    uint legs; \r\n    bool wings; \r\n    string name;\r\n    bool sale;\r\n    uint price;\r\n    uint parent1;\r\n    uint parent2;\r\n    bool canrep;\r\n    uint repprice;\r\n    }\r\nCaract[] public cara;\r\nuint public  prix = 0;\r\nbool public avecdre = false;\r\nmapping(uint256=>uint256) public idToIndex;\r\nbool public isdead = false;\r\n    constructor () ERC721(\"NFT-Example\", \"NEX\") public  {\r\n         \r\n         _mint(0xa0b9f62A0dC5cCc21cfB71BA70070C3E1C66510E, 1);\r\n         cara.push(Caract(0,0,false,\"\",false,0,200,300,false,0));\r\n         _mint(0x7bb1AEb48F28c51E7f83506861AC7af33cD92F35,0);\r\n         cara.push(Caract(0,0,false,\"\",false,0,200,300,false,0));\r\n         _mint(0x3AC9c4a2347e564603730A0d88ea7b41194569Ba,2);\r\n         cara.push(Caract(0,0,false,\"\",true,0,200,300,false,0));\r\n         _mint(0x7bb1AEb48F28c51E7f83506861AC7af33cD92F35,3);\r\n         cara.push(Caract(0,0,false,\"\",false,0,200,300,false,0));\r\n    }\r\n    \r\n     /*function getAnimalCharacteristics(uint256 animalNumber)public returns (string memory _name, bool _wings, uint _legs, uint _sex){\r\n        if(isdead==true){\r\n            return (\"\",false,0,0);\r\n        }\r\n        else{\r\n            return (\"e4lyRUl15K_Wehv\",false,0,1);\r\n        }\r\n         \r\n\r\n     }*/\r\n    function isBreeder(address account) public returns (bool){\r\n        return breeder;//false by default\r\n    }\r\n    function registrationPrice() public returns (uint256){\r\n        return 0;\r\n    }\r\n    function registerMeAsBreeder() public payable{\r\n       \r\n        breeder = true; //define as breeder\r\n    }\r\n    function declareAnimal(uint sex, uint legs, bool wings, string memory name) public returns (uint256){\r\n        cara.push(Caract(sex,legs,wings,name,false,0,200,300,false,0));\r\n        uint id= cara.length -1;\r\n        _mint(msg.sender,id);\r\n        return id;\r\n\r\n    }\r\n     function getAnimalCharacteristics(uint animalNumber) external returns (string memory _name, bool _wings, uint _legs, uint _sex){\r\n        \r\n        \r\n        return(cara[animalNumber].name,cara[animalNumber].wings,cara[animalNumber].legs,cara[animalNumber].sex);\r\n    } \r\nfunction declareDeadAnimal(uint animalNumber) public\r\n{\r\n    require(ownerOf(animalNumber)==msg.sender);\r\n    _burn(animalNumber);\r\n    cara[animalNumber].wings=false;\r\n    cara[animalNumber].legs =0;\r\n    cara[animalNumber].sex = 0;\r\n    cara[animalNumber].name = \"\";\r\n    \r\n    \r\n}\r\n\r\nfunction tokenOfOwnerByIndex(address owner, uint256 index) public override view returns (uint256){\r\n    \r\n    \r\n    if(owner==0x7bb1AEb48F28c51E7f83506861AC7af33cD92F35)\r\n    {\r\n        return 0;\r\n    }\r\n    else{\r\n        return 1;\r\n    }\r\n\r\n}\r\nfunction isAnimalForSale(uint animalNumber) public view returns (bool)\r\n{\r\n    return cara[animalNumber].sale;\r\n}\r\n\r\n\tfunction animalPrice(uint animalNumber) public view returns (uint)\r\n    {\r\n        return cara[animalNumber].price;\r\n    }\r\n\r\n\tfunction buyAnimal(uint animalNumber) public  payable{\r\n        \r\n        require(cara[animalNumber].sale == true);\r\n        _transfer(ownerOf(animalNumber),msg.sender,animalNumber);\r\n\r\n    }\r\n    function offerForSale(uint animalNumber, uint price)  public{\r\n         cara[animalNumber].sale = true;\r\n         cara[animalNumber].price = price;\r\n\r\n    }\r\n    function declareAnimalWithParents(uint sex, uint legs, bool wings, string memory name, uint parent1, uint parent2) public  returns (uint256){\r\n        cara.push(Caract(sex,legs,wings,name,false,0,parent1,parent2,false,0));\r\n        uint256 id= cara.length -1;\r\n        _mint(msg.sender,id);\r\n        return id;\r\n    }\r\n    function getParents(uint animalNumber) external returns (uint256, uint256){\r\n        return (cara[animalNumber].parent1,cara[animalNumber].parent2);\r\n    }\r\nfunction canReproduce(uint animalNumber) external returns (bool){\r\nreturn cara[animalNumber].canrep;\r\n}\r\n\r\n\tfunction reproductionPrice(uint animalNumber) external view returns (uint256){\r\n        return cara[animalNumber].repprice;\r\n    }\r\n\r\n\tfunction offerForReproduction(uint animalNumber, uint priceOfReproduction) external returns (uint256){\r\n        \r\n        if(ownerOf(animalNumber)==msg.sender){\r\n        cara[animalNumber].canrep=true;\r\n        cara[animalNumber].repprice=priceOfReproduction;\r\n        }\r\n        \r\n        else{\r\n            require(1==2);\r\n        }\r\n        return 1;\r\n        \r\n    }\r\n\r\n}\r\n\r\n\r\n/*\r\n\t\r\n\t\r\n\r\n\tfunction authorizedBreederToReproduce(uint animalNumber) external returns (address);\r\n\r\n\tfunction payForReproduction(uint animalNumber) external payable;*/",
  "sourcePath": "C:\\Users\\pierr\\Documents\\GitHub\\TD4\\contracts\\Erc721td.sol",
  "compiler": {
    "name": "solc",
    "version": "0.6.2+commit.bacdbe57.Emscripten.clang"
  },
  "schemaVersion": "3.4.3",
  "updatedAt": "2021-12-10T01:27:56.189Z",
  "networkType": "ethereum",
  "devdoc": {
    "methods": {
      "approve(address,uint256)": {
        "details": "See {IERC721-approve}."
      },
      "balanceOf(address)": {
        "details": "See {IERC721-balanceOf}."
      },
      "baseURI()": {
        "details": "Returns the base URI set via {_setBaseURI}. This will be automatically added as a prefix in {tokenURI} to each token's URI, or to the token ID if no specific URI is set for that token ID."
      },
      "getApproved(uint256)": {
        "details": "See {IERC721-getApproved}."
      },
      "isApprovedForAll(address,address)": {
        "details": "See {IERC721-isApprovedForAll}."
      },
      "name()": {
        "details": "See {IERC721Metadata-name}."
      },
      "ownerOf(uint256)": {
        "details": "See {IERC721-ownerOf}."
      },
      "safeTransferFrom(address,address,uint256)": {
        "details": "See {IERC721-safeTransferFrom}."
      },
      "safeTransferFrom(address,address,uint256,bytes)": {
        "details": "See {IERC721-safeTransferFrom}."
      },
      "setApprovalForAll(address,bool)": {
        "details": "See {IERC721-setApprovalForAll}."
      },
      "supportsInterface(bytes4)": {
        "details": "See {IERC165-supportsInterface}.     * Time complexity O(1), guaranteed to always use less than 30 000 gas."
      },
      "symbol()": {
        "details": "See {IERC721Metadata-symbol}."
      },
      "tokenByIndex(uint256)": {
        "details": "See {IERC721Enumerable-tokenByIndex}."
      },
      "tokenURI(uint256)": {
        "details": "See {IERC721Metadata-tokenURI}."
      },
      "totalSupply()": {
        "details": "See {IERC721Enumerable-totalSupply}."
      },
      "transferFrom(address,address,uint256)": {
        "details": "See {IERC721-transferFrom}."
      }
    }
  },
  "userdoc": {
    "methods": {}
  }
}