{
  "contractName": "Evaluator",
  "abi": [
    {
      "inputs": [
        {
          "internalType": "contract ERC20TD",
          "name": "_TDERC20",
          "type": "address"
        }
      ],
      "stateMutability": "nonpayable",
      "type": "constructor"
    },
    {
      "anonymous": false,
      "inputs": [
        {
          "indexed": false,
          "internalType": "address",
          "name": "erc20Address",
          "type": "address"
        }
      ],
      "name": "constructedCorrectly",
      "type": "event"
    },
    {
      "anonymous": false,
      "inputs": [
        {
          "indexed": false,
          "internalType": "string",
          "name": "name",
          "type": "string"
        },
        {
          "indexed": false,
          "internalType": "uint256",
          "name": "legs",
          "type": "uint256"
        },
        {
          "indexed": false,
          "internalType": "uint256",
          "name": "sex",
          "type": "uint256"
        },
        {
          "indexed": false,
          "internalType": "bool",
          "name": "wings",
          "type": "bool"
        }
      ],
      "name": "newRandomAnimalAttributes",
      "type": "event"
    },
    {
      "stateMutability": "payable",
      "type": "fallback",
      "payable": true
    },
    {
      "inputs": [
        {
          "internalType": "address",
          "name": "",
          "type": "address"
        }
      ],
      "name": "assignedRank",
      "outputs": [
        {
          "internalType": "uint256",
          "name": "",
          "type": "uint256"
        }
      ],
      "stateMutability": "view",
      "type": "function",
      "constant": true
    },
    {
      "inputs": [
        {
          "internalType": "address",
          "name": "",
          "type": "address"
        },
        {
          "internalType": "uint256",
          "name": "",
          "type": "uint256"
        }
      ],
      "name": "exerciceProgression",
      "outputs": [
        {
          "internalType": "bool",
          "name": "",
          "type": "bool"
        }
      ],
      "stateMutability": "view",
      "type": "function",
      "constant": true
    },
    {
      "inputs": [
        {
          "internalType": "address",
          "name": "",
          "type": "address"
        }
      ],
      "name": "hasBeenPaired",
      "outputs": [
        {
          "internalType": "bool",
          "name": "",
          "type": "bool"
        }
      ],
      "stateMutability": "view",
      "type": "function",
      "constant": true
    },
    {
      "inputs": [],
      "name": "nextValueStoreRank",
      "outputs": [
        {
          "internalType": "uint256",
          "name": "",
          "type": "uint256"
        }
      ],
      "stateMutability": "view",
      "type": "function",
      "constant": true
    },
    {
      "inputs": [
        {
          "internalType": "address",
          "name": "",
          "type": "address"
        }
      ],
      "name": "studentExerciceSolution",
      "outputs": [
        {
          "internalType": "contract IExerciceSolution",
          "name": "",
          "type": "address"
        }
      ],
      "stateMutability": "view",
      "type": "function",
      "constant": true
    },
    {
      "inputs": [
        {
          "internalType": "address",
          "name": "",
          "type": "address"
        }
      ],
      "name": "teachers",
      "outputs": [
        {
          "internalType": "bool",
          "name": "",
          "type": "bool"
        }
      ],
      "stateMutability": "view",
      "type": "function",
      "constant": true
    },
    {
      "stateMutability": "payable",
      "type": "receive",
      "payable": true
    },
    {
      "inputs": [],
      "name": "ex1_testERC721",
      "outputs": [],
      "stateMutability": "nonpayable",
      "type": "function"
    },
    {
      "inputs": [],
      "name": "ex2a_getAnimalToCreateAttributes",
      "outputs": [],
      "stateMutability": "nonpayable",
      "type": "function"
    },
    {
      "inputs": [
        {
          "internalType": "uint256",
          "name": "animalNumber",
          "type": "uint256"
        }
      ],
      "name": "ex2b_testDeclaredAnimal",
      "outputs": [],
      "stateMutability": "nonpayable",
      "type": "function"
    },
    {
      "inputs": [],
      "name": "ex3_testRegisterBreeder",
      "outputs": [],
      "stateMutability": "nonpayable",
      "type": "function"
    },
    {
      "inputs": [],
      "name": "ex4_testDeclareAnimal",
      "outputs": [],
      "stateMutability": "nonpayable",
      "type": "function"
    },
    {
      "inputs": [],
      "name": "ex5_declareDeadAnimal",
      "outputs": [],
      "stateMutability": "nonpayable",
      "type": "function"
    },
    {
      "inputs": [],
      "name": "ex6a_auctionAnimal_offer",
      "outputs": [],
      "stateMutability": "nonpayable",
      "type": "function"
    },
    {
      "inputs": [
        {
          "internalType": "uint256",
          "name": "animalForSale",
          "type": "uint256"
        }
      ],
      "name": "ex6b_auctionAnimal_buy",
      "outputs": [],
      "stateMutability": "nonpayable",
      "type": "function"
    },
    {
      "inputs": [
        {
          "internalType": "contract IExerciceSolution",
          "name": "studentExercice",
          "type": "address"
        }
      ],
      "name": "submitExercice",
      "outputs": [],
      "stateMutability": "nonpayable",
      "type": "function"
    },
    {
      "inputs": [
        {
          "internalType": "bytes32",
          "name": "_bytes32",
          "type": "bytes32"
        }
      ],
      "name": "bytes32ToString",
      "outputs": [
        {
          "internalType": "string",
          "name": "",
          "type": "string"
        }
      ],
      "stateMutability": "pure",
      "type": "function",
      "constant": true
    },
    {
      "inputs": [
        {
          "internalType": "address",
          "name": "studentAddres",
          "type": "address"
        }
      ],
      "name": "readName",
      "outputs": [
        {
          "internalType": "string",
          "name": "",
          "type": "string"
        }
      ],
      "stateMutability": "view",
      "type": "function",
      "constant": true
    },
    {
      "inputs": [
        {
          "internalType": "address",
          "name": "studentAddres",
          "type": "address"
        }
      ],
      "name": "readLegs",
      "outputs": [
        {
          "internalType": "uint256",
          "name": "",
          "type": "uint256"
        }
      ],
      "stateMutability": "view",
      "type": "function",
      "constant": true
    },
    {
      "inputs": [
        {
          "internalType": "address",
          "name": "studentAddres",
          "type": "address"
        }
      ],
      "name": "readSex",
      "outputs": [
        {
          "internalType": "uint256",
          "name": "",
          "type": "uint256"
        }
      ],
      "stateMutability": "view",
      "type": "function",
      "constant": true
    },
    {
      "inputs": [
        {
          "internalType": "address",
          "name": "studentAddres",
          "type": "address"
        }
      ],
      "name": "readWings",
      "outputs": [
        {
          "internalType": "bool",
          "name": "",
          "type": "bool"
        }
      ],
      "stateMutability": "view",
      "type": "function",
      "constant": true
    },
    {
      "inputs": [
        {
          "internalType": "string[20]",
          "name": "_randomNames",
          "type": "string[20]"
        },
        {
          "internalType": "uint256[20]",
          "name": "_randomLegs",
          "type": "uint256[20]"
        },
        {
          "internalType": "uint256[20]",
          "name": "_randomSex",
          "type": "uint256[20]"
        },
        {
          "internalType": "bool[20]",
          "name": "_randomWings",
          "type": "bool[20]"
        }
      ],
      "name": "setRandomValuesStore",
      "outputs": [],
      "stateMutability": "nonpayable",
      "type": "function"
    }
  ],
  "bytecode": "0x60806040523480156200001157600080fd5b5060405162005fc038038062005fc08339818101604052620000379190810190620000f1565b80600160006101000a81548173ffffffffffffffffffffffffffffffffffffffff021916908373ffffffffffffffffffffffffffffffffffffffff1602179055507f2915b3b4e0613c6b63dca39a375dd8c9f1de68d9e208a0713b7624260e2d0812600160009054906101000a900473ffffffffffffffffffffffffffffffffffffffff16604051620000cb91906200012e565b60405180910390a150620001ad565b600081519050620000eb8162000193565b92915050565b6000602082840312156200010457600080fd5b60006200011484828501620000da565b91505092915050565b62000128816200014b565b82525050565b60006020820190506200014560008301846200011d565b92915050565b6000620001588262000173565b9050919050565b60006200016c826200014b565b9050919050565b600073ffffffffffffffffffffffffffffffffffffffff82169050919050565b6200019e816200015f565b8114620001aa57600080fd5b50565b615e0380620001bd6000396000f3fe60806040526004361061012e5760003560e01c806374db455e116100ab578063df67f59d1161006f578063df67f59d146103be578063e2a51e64146103fb578063e7b8ef2414610412578063e9847a751461043b578063f0a47f7814610478578063f4fdbb88146104b557610135565b806374db455e146102ff578063806df959146103165780639201de55146103535780639aa99dd614610390578063dede624c146103a757610135565b806339119dce116100f257806339119dce1461021a5780634466f62d14610245578063469d2a83146102825780634cb6ad03146102bf578063614933ba146102d657610135565b80630b9612541461013757806314555c7a146101745780632236d3531461019d5780632e64c500146101c65780633842083a1461020357610135565b3661013557005b005b34801561014357600080fd5b5061015e60048036036101599190810190614b74565b6104f2565b60405161016b9190615710565b60405180910390f35b34801561018057600080fd5b5061019b60048036036101969190810190614d76565b610525565b005b3480156101a957600080fd5b506101c460048036036101bf9190810190614cd2565b610a20565b005b3480156101d257600080fd5b506101ed60048036036101e89190810190614bc6565b610dff565b6040516101fa91906156f5565b60405180910390f35b34801561020f57600080fd5b50610218610e2e565b005b34801561022657600080fd5b5061022f611465565b60405161023c9190615a54565b60405180910390f35b34801561025157600080fd5b5061026c60048036036102679190810190614b74565b61146b565b6040516102799190615a54565b60405180910390f35b34801561028e57600080fd5b506102a960048036036102a49190810190614b74565b611483565b6040516102b69190615a54565b60405180910390f35b3480156102cb57600080fd5b506102d46114da565b005b3480156102e257600080fd5b506102fd60048036036102f89190810190614c02565b611ef6565b005b34801561030b57600080fd5b5061031461209a565b005b34801561032257600080fd5b5061033d60048036036103389190810190614b74565b61292e565b60405161034a9190615746565b60405180910390f35b34801561035f57600080fd5b5061037a60048036036103759190810190614ca9565b612a1d565b6040516103879190615746565b60405180910390f35b34801561039c57600080fd5b506103a5612b7a565b005b3480156103b357600080fd5b506103bc612be6565b005b3480156103ca57600080fd5b506103e560048036036103e09190810190614b74565b6132da565b6040516103f29190615a54565b60405180910390f35b34801561040757600080fd5b50610410613331565b005b34801561041e57600080fd5b5061043960048036036104349190810190614d76565b613c17565b005b34801561044757600080fd5b50610462600480360361045d9190810190614b74565b61455e565b60405161046f91906156f5565b60405180910390f35b34801561048457600080fd5b5061049f600480360361049a9190810190614b74565b6145c9565b6040516104ac91906156f5565b60405180910390f35b3480156104c157600080fd5b506104dc60048036036104d79190810190614b74565b6145e9565b6040516104e991906156f5565b60405180910390f35b60036020528060005260406000206000915054906101000a900473ffffffffffffffffffffffffffffffffffffffff1681565b600260003373ffffffffffffffffffffffffffffffffffffffff1673ffffffffffffffffffffffffffffffffffffffff168152602001908152602001600020600080815260200190815260200160002060009054906101000a900460ff166105c2576040517f08c379a00000000000000000000000000000000000000000000000000000000081526004016105b9906159d4565b60405180910390fd5b60606105cd3361292e565b905060006105da3361455e565b905060006105e733611483565b905060006105f4336132da565b90503073ffffffffffffffffffffffffffffffffffffffff16600360003373ffffffffffffffffffffffffffffffffffffffff1673ffffffffffffffffffffffffffffffffffffffff16815260200190815260200160002060009054906101000a900473ffffffffffffffffffffffffffffffffffffffff1673ffffffffffffffffffffffffffffffffffffffff16636352211e876040518263ffffffff1660e01b81526004016106a59190615a54565b60206040518083038186803b1580156106bd57600080fd5b505afa1580156106d1573d6000803e3d6000fd5b505050506040513d601f19601f820116820180604052506106f59190810190614b9d565b73ffffffffffffffffffffffffffffffffffffffff161461074b576040517f08c379a000000000000000000000000000000000000000000000000000000000815260040161074290615994565b60405180910390fd5b60606000806000600360003373ffffffffffffffffffffffffffffffffffffffff1673ffffffffffffffffffffffffffffffffffffffff16815260200190815260200160002060009054906101000a900473ffffffffffffffffffffffffffffffffffffffff1673ffffffffffffffffffffffffffffffffffffffff1663b75e07508a6040518263ffffffff1660e01b81526004016107ea9190615a54565b600060405180830381600087803b15801561080457600080fd5b505af1158015610818573d6000803e3d6000fd5b505050506040513d6000823e3d601f19601f820116820180604052506108419190810190614cfb565b93509350935093506108538885614609565b80156108625750821515871515145b801561086d57508186145b801561087857508085145b6108b7576040517f08c379a00000000000000000000000000000000000000000000000000000000081526004016108ae90615954565b60405180910390fd5b600260003373ffffffffffffffffffffffffffffffffffffffff1673ffffffffffffffffffffffffffffffffffffffff16815260200190815260200160002060006002815260200190815260200160002060009054906101000a900460ff16610a15576001600260003373ffffffffffffffffffffffffffffffffffffffff1673ffffffffffffffffffffffffffffffffffffffff16815260200190815260200160002060006002815260200190815260200160002060006101000a81548160ff021916908315150217905550600160009054906101000a900473ffffffffffffffffffffffffffffffffffffffff1673ffffffffffffffffffffffffffffffffffffffff1663158a49883360026040518363ffffffff1660e01b81526004016109e29291906156cc565b600060405180830381600087803b1580156109fc57600080fd5b505af1158015610a10573d6000803e3d6000fd5b505050505b505050505050505050565b600460008273ffffffffffffffffffffffffffffffffffffffff1673ffffffffffffffffffffffffffffffffffffffff16815260200190815260200160002060009054906101000a900460ff1615610aad576040517f08c379a0000000000000000000000000000000000000000000000000000000008152600401610aa4906158f4565b60405180910390fd5b80600360003373ffffffffffffffffffffffffffffffffffffffff1673ffffffffffffffffffffffffffffffffffffffff16815260200190815260200160002060006101000a81548173ffffffffffffffffffffffffffffffffffffffff021916908373ffffffffffffffffffffffffffffffffffffffff160217905550600460008273ffffffffffffffffffffffffffffffffffffffff1673ffffffffffffffffffffffffffffffffffffffff16815260200190815260200160002060009054906101000a900460ff1615610bb8576040517f08c379a0000000000000000000000000000000000000000000000000000000008152600401610baf906158f4565b60405180910390fd5b6001600460008373ffffffffffffffffffffffffffffffffffffffff1673ffffffffffffffffffffffffffffffffffffffff16815260200190815260200160002060006101000a81548160ff021916908315150217905550600260003373ffffffffffffffffffffffffffffffffffffffff1673ffffffffffffffffffffffffffffffffffffffff168152602001908152602001600020600080815260200190815260200160002060009054906101000a900460ff16610dfc576001600260003373ffffffffffffffffffffffffffffffffffffffff1673ffffffffffffffffffffffffffffffffffffffff168152602001908152602001600020600080815260200190815260200160002060006101000a81548160ff021916908315150217905550600160009054906101000a900473ffffffffffffffffffffffffffffffffffffffff1673ffffffffffffffffffffffffffffffffffffffff1663158a49883360026040518363ffffffff1660e01b8152600401610d399291906156cc565b600060405180830381600087803b158015610d5357600080fd5b505af1158015610d67573d6000803e3d6000fd5b50505050600160009054906101000a900473ffffffffffffffffffffffffffffffffffffffff1673ffffffffffffffffffffffffffffffffffffffff1663158a49883360026040518363ffffffff1660e01b8152600401610dc99291906156cc565b600060405180830381600087803b158015610de357600080fd5b505af1158015610df7573d6000803e3d6000fd5b505050505b50565b60026020528160005260406000206020528060005260406000206000915091509054906101000a900460ff1681565b600260003373ffffffffffffffffffffffffffffffffffffffff1673ffffffffffffffffffffffffffffffffffffffff168152602001908152602001600020600080815260200190815260200160002060009054906101000a900460ff16610ecb576040517f08c379a0000000000000000000000000000000000000000000000000000000008152600401610ec2906159d4565b60405180910390fd5b600360003373ffffffffffffffffffffffffffffffffffffffff1673ffffffffffffffffffffffffffffffffffffffff16815260200190815260200160002060009054906101000a900473ffffffffffffffffffffffffffffffffffffffff1673ffffffffffffffffffffffffffffffffffffffff1663c7b9cb0b306040518263ffffffff1660e01b8152600401610f639190615628565b602060405180830381600087803b158015610f7d57600080fd5b505af1158015610f91573d6000803e3d6000fd5b505050506040513d601f19601f82011682018060405250610fb59190810190614c80565b15610ff5576040517f08c379a0000000000000000000000000000000000000000000000000000000008152600401610fec90615914565b60405180910390fd5b6000600360003373ffffffffffffffffffffffffffffffffffffffff1673ffffffffffffffffffffffffffffffffffffffff16815260200190815260200160002060009054906101000a900473ffffffffffffffffffffffffffffffffffffffff1673ffffffffffffffffffffffffffffffffffffffff1663216586586040518163ffffffff1660e01b8152600401602060405180830381600087803b15801561109e57600080fd5b505af11580156110b2573d6000803e3d6000fd5b505050506040513d601f19601f820116820180604052506110d69190810190614d9f565b90508047101561111b576040517f08c379a0000000000000000000000000000000000000000000000000000000008152600401611112906159f4565b60405180910390fd5b600360003373ffffffffffffffffffffffffffffffffffffffff1673ffffffffffffffffffffffffffffffffffffffff16815260200190815260200160002060009054906101000a900473ffffffffffffffffffffffffffffffffffffffff1673ffffffffffffffffffffffffffffffffffffffff166341d30bae826040518263ffffffff1660e01b81526004016000604051808303818588803b1580156111c257600080fd5b505af11580156111d6573d6000803e3d6000fd5b5050505050600360003373ffffffffffffffffffffffffffffffffffffffff1673ffffffffffffffffffffffffffffffffffffffff16815260200190815260200160002060009054906101000a900473ffffffffffffffffffffffffffffffffffffffff1673ffffffffffffffffffffffffffffffffffffffff1663c7b9cb0b306040518263ffffffff1660e01b81526004016112739190615628565b602060405180830381600087803b15801561128d57600080fd5b505af11580156112a1573d6000803e3d6000fd5b505050506040513d601f19601f820116820180604052506112c59190810190614c80565b611304576040517f08c379a00000000000000000000000000000000000000000000000000000000081526004016112fb90615a14565b60405180910390fd5b600260003373ffffffffffffffffffffffffffffffffffffffff1673ffffffffffffffffffffffffffffffffffffffff16815260200190815260200160002060006003815260200190815260200160002060009054906101000a900460ff16611462576001600260003373ffffffffffffffffffffffffffffffffffffffff1673ffffffffffffffffffffffffffffffffffffffff16815260200190815260200160002060006003815260200190815260200160002060006101000a81548160ff021916908315150217905550600160009054906101000a900473ffffffffffffffffffffffffffffffffffffffff1673ffffffffffffffffffffffffffffffffffffffff1663158a49883360026040518363ffffffff1660e01b815260040161142f9291906156cc565b600060405180830381600087803b15801561144957600080fd5b505af115801561145d573d6000803e3d6000fd5b505050505b50565b60435481565b60426020528060005260406000206000915090505481565b60006019604260008473ffffffffffffffffffffffffffffffffffffffff1673ffffffffffffffffffffffffffffffffffffffff16815260200190815260200160002054601481106114d157fe5b01549050919050565b6000600360003373ffffffffffffffffffffffffffffffffffffffff1673ffffffffffffffffffffffffffffffffffffffff16815260200190815260200160002060009054906101000a900473ffffffffffffffffffffffffffffffffffffffff1673ffffffffffffffffffffffffffffffffffffffff166370a08231306040518263ffffffff1660e01b81526004016115749190615628565b60206040518083038186803b15801561158c57600080fd5b505afa1580156115a0573d6000803e3d6000fd5b505050506040513d601f19601f820116820180604052506115c49190810190614d9f565b90506000600360003373ffffffffffffffffffffffffffffffffffffffff1673ffffffffffffffffffffffffffffffffffffffff16815260200190815260200160002060009054906101000a900473ffffffffffffffffffffffffffffffffffffffff1673ffffffffffffffffffffffffffffffffffffffff16632f745c593060006040518363ffffffff1660e01b815260040161166392919061567a565b60206040518083038186803b15801561167b57600080fd5b505afa15801561168f573d6000803e3d6000fd5b505050506040513d601f19601f820116820180604052506116b39190810190614d9f565b9050600360003373ffffffffffffffffffffffffffffffffffffffff1673ffffffffffffffffffffffffffffffffffffffff16815260200190815260200160002060009054906101000a900473ffffffffffffffffffffffffffffffffffffffff1673ffffffffffffffffffffffffffffffffffffffff1663ec897772826040518263ffffffff1660e01b815260040161174d9190615a54565b600060405180830381600087803b15801561176757600080fd5b505af115801561177b573d6000803e3d6000fd5b505050506000600360003373ffffffffffffffffffffffffffffffffffffffff1673ffffffffffffffffffffffffffffffffffffffff16815260200190815260200160002060009054906101000a900473ffffffffffffffffffffffffffffffffffffffff1673ffffffffffffffffffffffffffffffffffffffff166370a08231306040518263ffffffff1660e01b81526004016118199190615628565b60206040518083038186803b15801561183157600080fd5b505afa158015611845573d6000803e3d6000fd5b505050506040513d601f19601f820116820180604052506118699190810190614d9f565b90506001818403146118b0576040517f08c379a00000000000000000000000000000000000000000000000000000000081526004016118a7906158d4565b60405180910390fd5b60606000806000600360003373ffffffffffffffffffffffffffffffffffffffff1673ffffffffffffffffffffffffffffffffffffffff16815260200190815260200160002060009054906101000a900473ffffffffffffffffffffffffffffffffffffffff1673ffffffffffffffffffffffffffffffffffffffff1663b75e0750876040518263ffffffff1660e01b815260040161194f9190615a54565b600060405180830381600087803b15801561196957600080fd5b505af115801561197d573d6000803e3d6000fd5b505050506040513d6000823e3d601f19601f820116820180604052506119a69190810190614cfb565b93509350935093506119c76040518060200160405280600081525085614609565b80156119d7575082151560001515145b80156119e35750816000145b80156119ef5750806000145b611a2e576040517f08c379a0000000000000000000000000000000000000000000000000000000008152600401611a2590615834565b60405180910390fd5b6000600360003373ffffffffffffffffffffffffffffffffffffffff1673ffffffffffffffffffffffffffffffffffffffff16815260200190815260200160002060009054906101000a900473ffffffffffffffffffffffffffffffffffffffff1673ffffffffffffffffffffffffffffffffffffffff16632f745c593360006040518363ffffffff1660e01b8152600401611acb92919061567a565b60206040518083038186803b158015611ae357600080fd5b505afa158015611af7573d6000803e3d6000fd5b505050506040513d601f19601f82011682018060405250611b1b9190810190614d9f565b90503373ffffffffffffffffffffffffffffffffffffffff16600360003373ffffffffffffffffffffffffffffffffffffffff1673ffffffffffffffffffffffffffffffffffffffff16815260200190815260200160002060009054906101000a900473ffffffffffffffffffffffffffffffffffffffff1673ffffffffffffffffffffffffffffffffffffffff16636352211e836040518263ffffffff1660e01b8152600401611bcc9190615a54565b60206040518083038186803b158015611be457600080fd5b505afa158015611bf8573d6000803e3d6000fd5b505050506040513d601f19601f82011682018060405250611c1c9190810190614b9d565b73ffffffffffffffffffffffffffffffffffffffff1614611c72576040517f08c379a0000000000000000000000000000000000000000000000000000000008152600401611c69906158b4565b60405180910390fd5b6000809050600360003373ffffffffffffffffffffffffffffffffffffffff1673ffffffffffffffffffffffffffffffffffffffff16815260200190815260200160002060009054906101000a900473ffffffffffffffffffffffffffffffffffffffff1673ffffffffffffffffffffffffffffffffffffffff1663ec897772836040518263ffffffff1660e01b8152600401611d0f9190615a54565b600060405180830381600087803b158015611d2957600080fd5b505af1925050508015611d3a575060015b611d475760009050611d4c565b600190505b8015611d8d576040517f08c379a0000000000000000000000000000000000000000000000000000000008152600401611d8490615974565b60405180910390fd5b600260003373ffffffffffffffffffffffffffffffffffffffff1673ffffffffffffffffffffffffffffffffffffffff16815260200190815260200160002060006005815260200190815260200160002060009054906101000a900460ff16611eeb576001600260003373ffffffffffffffffffffffffffffffffffffffff1673ffffffffffffffffffffffffffffffffffffffff16815260200190815260200160002060006005815260200190815260200160002060006101000a81548160ff021916908315150217905550600160009054906101000a900473ffffffffffffffffffffffffffffffffffffffff1673ffffffffffffffffffffffffffffffffffffffff1663158a49883360026040518363ffffffff1660e01b8152600401611eb89291906156cc565b600060405180830381600087803b158015611ed257600080fd5b505af1158015611ee6573d6000803e3d6000fd5b505050505b505050505050505050565b600160009054906101000a900473ffffffffffffffffffffffffffffffffffffffff1673ffffffffffffffffffffffffffffffffffffffff1663f0a47f78336040518263ffffffff1660e01b8152600401611f519190615628565b60206040518083038186803b158015611f6957600080fd5b505afa158015611f7d573d6000803e3d6000fd5b505050506040513d601f19601f82011682018060405250611fa19190810190614c80565b611faa57600080fd5b836005906014611fbb929190614662565b50826019906014611fcd9291906146b5565b5081602d906014611fdf9291906146b5565b50806041906014611ff19291906146f5565b50600060438190555060008090505b6014811015612093577ff2537ffa858a0d83d85a3f54f39afe79a3edb9141e3802a7bde0b3131b60b81485826014811061203657fe5b602002015185836014811061204757fe5b602002015185846014811061205857fe5b602002015185856014811061206957fe5b602002015160405161207e9493929190615768565b60405180910390a18080600101915050612000565b5050505050565b600360003373ffffffffffffffffffffffffffffffffffffffff1673ffffffffffffffffffffffffffffffffffffffff16815260200190815260200160002060009054906101000a900473ffffffffffffffffffffffffffffffffffffffff1673ffffffffffffffffffffffffffffffffffffffff1663c7b9cb0b306040518263ffffffff1660e01b81526004016121329190615628565b602060405180830381600087803b15801561214c57600080fd5b505af1158015612160573d6000803e3d6000fd5b505050506040513d601f19601f820116820180604052506121849190810190614c80565b6121c3576040517f08c379a00000000000000000000000000000000000000000000000000000000081526004016121ba90615a14565b60405180910390fd5b6000600360003373ffffffffffffffffffffffffffffffffffffffff1673ffffffffffffffffffffffffffffffffffffffff16815260200190815260200160002060009054906101000a900473ffffffffffffffffffffffffffffffffffffffff1673ffffffffffffffffffffffffffffffffffffffff166370a08231306040518263ffffffff1660e01b815260040161225d9190615628565b60206040518083038186803b15801561227557600080fd5b505afa158015612289573d6000803e3d6000fd5b505050506040513d601f19601f820116820180604052506122ad9190810190614d9f565b905060606122ba3361292e565b905060006122c73361455e565b905060006122d433611483565b905060006122e1336132da565b90506000600360003373ffffffffffffffffffffffffffffffffffffffff1673ffffffffffffffffffffffffffffffffffffffff16815260200190815260200160002060009054906101000a900473ffffffffffffffffffffffffffffffffffffffff1673ffffffffffffffffffffffffffffffffffffffff166332b0f376838587896040518563ffffffff1660e01b81526004016123839493929190615a98565b602060405180830381600087803b15801561239d57600080fd5b505af11580156123b1573d6000803e3d6000fd5b505050506040513d601f19601f820116820180604052506123d59190810190614d9f565b90503073ffffffffffffffffffffffffffffffffffffffff16600360003373ffffffffffffffffffffffffffffffffffffffff1673ffffffffffffffffffffffffffffffffffffffff16815260200190815260200160002060009054906101000a900473ffffffffffffffffffffffffffffffffffffffff1673ffffffffffffffffffffffffffffffffffffffff16636352211e836040518263ffffffff1660e01b81526004016124869190615a54565b60206040518083038186803b15801561249e57600080fd5b505afa1580156124b2573d6000803e3d6000fd5b505050506040513d601f19601f820116820180604052506124d69190810190614b9d565b73ffffffffffffffffffffffffffffffffffffffff161461252c576040517f08c379a000000000000000000000000000000000000000000000000000000000815260040161252390615994565b60405180910390fd5b60018601600360003373ffffffffffffffffffffffffffffffffffffffff1673ffffffffffffffffffffffffffffffffffffffff16815260200190815260200160002060009054906101000a900473ffffffffffffffffffffffffffffffffffffffff1673ffffffffffffffffffffffffffffffffffffffff166370a08231306040518263ffffffff1660e01b81526004016125c89190615628565b60206040518083038186803b1580156125e057600080fd5b505afa1580156125f4573d6000803e3d6000fd5b505050506040513d601f19601f820116820180604052506126189190810190614d9f565b14612658576040517f08c379a000000000000000000000000000000000000000000000000000000000815260040161264f90615a34565b60405180910390fd5b60606000806000600360003373ffffffffffffffffffffffffffffffffffffffff1673ffffffffffffffffffffffffffffffffffffffff16815260200190815260200160002060009054906101000a900473ffffffffffffffffffffffffffffffffffffffff1673ffffffffffffffffffffffffffffffffffffffff1663b75e0750866040518263ffffffff1660e01b81526004016126f79190615a54565b600060405180830381600087803b15801561271157600080fd5b505af1158015612725573d6000803e3d6000fd5b505050506040513d6000823e3d601f19601f8201168201806040525061274e9190810190614cfb565b93509350935093506127608985614609565b801561276f5750821515881515145b801561277a57508187145b801561278557508086145b6127c4576040517f08c379a00000000000000000000000000000000000000000000000000000000081526004016127bb90615954565b60405180910390fd5b600260003373ffffffffffffffffffffffffffffffffffffffff1673ffffffffffffffffffffffffffffffffffffffff16815260200190815260200160002060006004815260200190815260200160002060009054906101000a900460ff16612922576001600260003373ffffffffffffffffffffffffffffffffffffffff1673ffffffffffffffffffffffffffffffffffffffff16815260200190815260200160002060006004815260200190815260200160002060006101000a81548160ff021916908315150217905550600160009054906101000a900473ffffffffffffffffffffffffffffffffffffffff1673ffffffffffffffffffffffffffffffffffffffff1663158a49883360026040518363ffffffff1660e01b81526004016128ef9291906156cc565b600060405180830381600087803b15801561290957600080fd5b505af115801561291d573d6000803e3d6000fd5b505050505b50505050505050505050565b60606005604260008473ffffffffffffffffffffffffffffffffffffffff1673ffffffffffffffffffffffffffffffffffffffff168152602001908152602001600020546014811061297c57fe5b018054600181600116156101000203166002900480601f016020809104026020016040519081016040528092919081815260200182805460018160011615610100020316600290048015612a115780601f106129e657610100808354040283529160200191612a11565b820191906000526020600020905b8154815290600101906020018083116129f457829003601f168201915b50505050509050919050565b606060008090505b60208160ff16108015612a705750600060f81b838260ff1660208110612a4757fe5b1a60f81b7effffffffffffffffffffffffffffffffffffffffffffffffffffffffffffff191614155b15612a82578080600101915050612a25565b60608160ff166040519080825280601f01601f191660200182016040528015612aba5781602001600182028038833980820191505090505b509050600091505b60208260ff16108015612b0d5750600060f81b848360ff1660208110612ae457fe5b1a60f81b7effffffffffffffffffffffffffffffffffffffffffffffffffffffffffffff191614155b15612b7057838260ff1660208110612b2157fe5b1a60f81b818360ff1681518110612b3457fe5b60200101907effffffffffffffffffffffffffffffffffffffffffffffffffffffffffffff1916908160001a9053508180600101925050612ac2565b8092505050919050565b604354604260003373ffffffffffffffffffffffffffffffffffffffff1673ffffffffffffffffffffffffffffffffffffffff168152602001908152602001600020819055506001604360008282540192505081905550601460435410612be45760006043819055505b565b600260003373ffffffffffffffffffffffffffffffffffffffff1673ffffffffffffffffffffffffffffffffffffffff168152602001908152602001600020600080815260200190815260200160002060009054906101000a900460ff16612c83576040517f08c379a0000000000000000000000000000000000000000000000000000000008152600401612c7a906159d4565b60405180910390fd5b6001600360003373ffffffffffffffffffffffffffffffffffffffff1673ffffffffffffffffffffffffffffffffffffffff16815260200190815260200160002060009054906101000a900473ffffffffffffffffffffffffffffffffffffffff1673ffffffffffffffffffffffffffffffffffffffff166370a08231306040518263ffffffff1660e01b8152600401612d1d9190615628565b60206040518083038186803b158015612d3557600080fd5b505afa158015612d49573d6000803e3d6000fd5b505050506040513d601f19601f82011682018060405250612d6d9190810190614d9f565b14612d7757600080fd5b3073ffffffffffffffffffffffffffffffffffffffff16600360003373ffffffffffffffffffffffffffffffffffffffff1673ffffffffffffffffffffffffffffffffffffffff16815260200190815260200160002060009054906101000a900473ffffffffffffffffffffffffffffffffffffffff1673ffffffffffffffffffffffffffffffffffffffff16636352211e60016040518263ffffffff1660e01b8152600401612e27919061572b565b60206040518083038186803b158015612e3f57600080fd5b505afa158015612e53573d6000803e3d6000fd5b505050506040513d601f19601f82011682018060405250612e779190810190614b9d565b73ffffffffffffffffffffffffffffffffffffffff1614612e9757600080fd5b600360003373ffffffffffffffffffffffffffffffffffffffff1673ffffffffffffffffffffffffffffffffffffffff16815260200190815260200160002060009054906101000a900473ffffffffffffffffffffffffffffffffffffffff1673ffffffffffffffffffffffffffffffffffffffff166342842e0e303360016040518463ffffffff1660e01b8152600401612f3493929190615643565b600060405180830381600087803b158015612f4e57600080fd5b505af1158015612f62573d6000803e3d6000fd5b505050506000600360003373ffffffffffffffffffffffffffffffffffffffff1673ffffffffffffffffffffffffffffffffffffffff16815260200190815260200160002060009054906101000a900473ffffffffffffffffffffffffffffffffffffffff1673ffffffffffffffffffffffffffffffffffffffff166370a08231306040518263ffffffff1660e01b81526004016130009190615628565b60206040518083038186803b15801561301857600080fd5b505afa15801561302c573d6000803e3d6000fd5b505050506040513d601f19601f820116820180604052506130509190810190614d9f565b1461305a57600080fd5b3373ffffffffffffffffffffffffffffffffffffffff16600360003373ffffffffffffffffffffffffffffffffffffffff1673ffffffffffffffffffffffffffffffffffffffff16815260200190815260200160002060009054906101000a900473ffffffffffffffffffffffffffffffffffffffff1673ffffffffffffffffffffffffffffffffffffffff16636352211e60016040518263ffffffff1660e01b815260040161310a919061572b565b60206040518083038186803b15801561312257600080fd5b505afa158015613136573d6000803e3d6000fd5b505050506040513d601f19601f8201168201806040525061315a9190810190614b9d565b73ffffffffffffffffffffffffffffffffffffffff161461317a57600080fd5b600260003373ffffffffffffffffffffffffffffffffffffffff1673ffffffffffffffffffffffffffffffffffffffff16815260200190815260200160002060006001815260200190815260200160002060009054906101000a900460ff166132d8576001600260003373ffffffffffffffffffffffffffffffffffffffff1673ffffffffffffffffffffffffffffffffffffffff16815260200190815260200160002060006001815260200190815260200160002060006101000a81548160ff021916908315150217905550600160009054906101000a900473ffffffffffffffffffffffffffffffffffffffff1673ffffffffffffffffffffffffffffffffffffffff1663158a49883360026040518363ffffffff1660e01b81526004016132a59291906156cc565b600060405180830381600087803b1580156132bf57600080fd5b505af11580156132d3573d6000803e3d6000fd5b505050505b565b6000602d604260008473ffffffffffffffffffffffffffffffffffffffff1673ffffffffffffffffffffffffffffffffffffffff168152602001908152602001600020546014811061332857fe5b01549050919050565b6000600360003373ffffffffffffffffffffffffffffffffffffffff1673ffffffffffffffffffffffffffffffffffffffff16815260200190815260200160002060009054906101000a900473ffffffffffffffffffffffffffffffffffffffff1673ffffffffffffffffffffffffffffffffffffffff16632f745c593060006040518363ffffffff1660e01b81526004016133ce92919061567a565b60206040518083038186803b1580156133e657600080fd5b505afa1580156133fa573d6000803e3d6000fd5b505050506040513d601f19601f8201168201806040525061341e9190810190614d9f565b9050600360003373ffffffffffffffffffffffffffffffffffffffff1673ffffffffffffffffffffffffffffffffffffffff16815260200190815260200160002060009054906101000a900473ffffffffffffffffffffffffffffffffffffffff1673ffffffffffffffffffffffffffffffffffffffff1663c5f51f73826040518263ffffffff1660e01b81526004016134b89190615a54565b60206040518083038186803b1580156134d057600080fd5b505afa1580156134e4573d6000803e3d6000fd5b505050506040513d601f19601f820116820180604052506135089190810190614c80565b15613548576040517f08c379a000000000000000000000000000000000000000000000000000000000815260040161353f90615854565b60405180910390fd5b6000600360003373ffffffffffffffffffffffffffffffffffffffff1673ffffffffffffffffffffffffffffffffffffffff16815260200190815260200160002060009054906101000a900473ffffffffffffffffffffffffffffffffffffffff1673ffffffffffffffffffffffffffffffffffffffff16633573dbd1836040518263ffffffff1660e01b81526004016135e29190615a54565b60206040518083038186803b1580156135fa57600080fd5b505afa15801561360e573d6000803e3d6000fd5b505050506040513d601f19601f820116820180604052506136329190810190614d9f565b14613672576040517f08c379a000000000000000000000000000000000000000000000000000000000815260040161366990615814565b60405180910390fd5b6000809050600360003373ffffffffffffffffffffffffffffffffffffffff1673ffffffffffffffffffffffffffffffffffffffff16815260200190815260200160002060009054906101000a900473ffffffffffffffffffffffffffffffffffffffff1673ffffffffffffffffffffffffffffffffffffffff16631a14e94a836040518263ffffffff1660e01b815260040161370f9190615a54565b600060405180830381600087803b15801561372957600080fd5b505af192505050801561373a575060015b613747576000905061374c565b600190505b801561378d576040517f08c379a0000000000000000000000000000000000000000000000000000000008152600401613784906157f4565b60405180910390fd5b600360003373ffffffffffffffffffffffffffffffffffffffff1673ffffffffffffffffffffffffffffffffffffffff16815260200190815260200160002060009054906101000a900473ffffffffffffffffffffffffffffffffffffffff1673ffffffffffffffffffffffffffffffffffffffff166377386df383655af3107a40006040518363ffffffff1660e01b815260040161382d929190615a6f565b600060405180830381600087803b15801561384757600080fd5b505af115801561385b573d6000803e3d6000fd5b50505050600360003373ffffffffffffffffffffffffffffffffffffffff1673ffffffffffffffffffffffffffffffffffffffff16815260200190815260200160002060009054906101000a900473ffffffffffffffffffffffffffffffffffffffff1673ffffffffffffffffffffffffffffffffffffffff1663c5f51f73836040518263ffffffff1660e01b81526004016138f79190615a54565b60206040518083038186803b15801561390f57600080fd5b505afa158015613923573d6000803e3d6000fd5b505050506040513d601f19601f820116820180604052506139479190810190614c80565b613986576040517f08c379a000000000000000000000000000000000000000000000000000000000815260040161397d90615894565b60405180910390fd5b655af3107a4000600360003373ffffffffffffffffffffffffffffffffffffffff1673ffffffffffffffffffffffffffffffffffffffff16815260200190815260200160002060009054906101000a900473ffffffffffffffffffffffffffffffffffffffff1673ffffffffffffffffffffffffffffffffffffffff16633573dbd1846040518263ffffffff1660e01b8152600401613a259190615a54565b60206040518083038186803b158015613a3d57600080fd5b505afa158015613a51573d6000803e3d6000fd5b505050506040513d601f19601f82011682018060405250613a759190810190614d9f565b14613ab5576040517f08c379a0000000000000000000000000000000000000000000000000000000008152600401613aac90615874565b60405180910390fd5b600260003373ffffffffffffffffffffffffffffffffffffffff1673ffffffffffffffffffffffffffffffffffffffff1681526020019081526020016000206000603d815260200190815260200160002060009054906101000a900460ff16613c13576001600260003373ffffffffffffffffffffffffffffffffffffffff1673ffffffffffffffffffffffffffffffffffffffff1681526020019081526020016000206000603d815260200190815260200160002060006101000a81548160ff021916908315150217905550600160009054906101000a900473ffffffffffffffffffffffffffffffffffffffff1673ffffffffffffffffffffffffffffffffffffffff1663158a49883360016040518363ffffffff1660e01b8152600401613be09291906156a3565b600060405180830381600087803b158015613bfa57600080fd5b505af1158015613c0e573d6000803e3d6000fd5b505050505b5050565b6000600360003373ffffffffffffffffffffffffffffffffffffffff1673ffffffffffffffffffffffffffffffffffffffff16815260200190815260200160002060009054906101000a900473ffffffffffffffffffffffffffffffffffffffff1673ffffffffffffffffffffffffffffffffffffffff166370a08231306040518263ffffffff1660e01b8152600401613cb19190615628565b60206040518083038186803b158015613cc957600080fd5b505afa158015613cdd573d6000803e3d6000fd5b505050506040513d601f19601f82011682018060405250613d019190810190614d9f565b90503073ffffffffffffffffffffffffffffffffffffffff16600360003373ffffffffffffffffffffffffffffffffffffffff1673ffffffffffffffffffffffffffffffffffffffff16815260200190815260200160002060009054906101000a900473ffffffffffffffffffffffffffffffffffffffff1673ffffffffffffffffffffffffffffffffffffffff16636352211e846040518263ffffffff1660e01b8152600401613db29190615a54565b60206040518083038186803b158015613dca57600080fd5b505afa158015613dde573d6000803e3d6000fd5b505050506040513d601f19601f82011682018060405250613e029190810190614b9d565b73ffffffffffffffffffffffffffffffffffffffff161415613e59576040517f08c379a0000000000000000000000000000000000000000000000000000000008152600401613e50906157b4565b60405180910390fd5b600360003373ffffffffffffffffffffffffffffffffffffffff1673ffffffffffffffffffffffffffffffffffffffff16815260200190815260200160002060009054906101000a900473ffffffffffffffffffffffffffffffffffffffff1673ffffffffffffffffffffffffffffffffffffffff1663c5f51f73836040518263ffffffff1660e01b8152600401613ef19190615a54565b60206040518083038186803b158015613f0957600080fd5b505afa158015613f1d573d6000803e3d6000fd5b505050506040513d601f19601f82011682018060405250613f419190810190614c80565b613f80576040517f08c379a0000000000000000000000000000000000000000000000000000000008152600401613f77906157d4565b60405180910390fd5b6000600360003373ffffffffffffffffffffffffffffffffffffffff1673ffffffffffffffffffffffffffffffffffffffff16815260200190815260200160002060009054906101000a900473ffffffffffffffffffffffffffffffffffffffff1673ffffffffffffffffffffffffffffffffffffffff16633573dbd1846040518263ffffffff1660e01b815260040161401a9190615a54565b60206040518083038186803b15801561403257600080fd5b505afa158015614046573d6000803e3d6000fd5b505050506040513d601f19601f8201168201806040525061406a9190810190614d9f565b9050804710156140af576040517f08c379a00000000000000000000000000000000000000000000000000000000081526004016140a690615934565b60405180910390fd5b600360003373ffffffffffffffffffffffffffffffffffffffff1673ffffffffffffffffffffffffffffffffffffffff16815260200190815260200160002060009054906101000a900473ffffffffffffffffffffffffffffffffffffffff1673ffffffffffffffffffffffffffffffffffffffff16631a14e94a82856040518363ffffffff1660e01b81526004016141489190615a54565b6000604051808303818588803b15801561416157600080fd5b505af1158015614175573d6000803e3d6000fd5b50505050503073ffffffffffffffffffffffffffffffffffffffff16600360003373ffffffffffffffffffffffffffffffffffffffff1673ffffffffffffffffffffffffffffffffffffffff16815260200190815260200160002060009054906101000a900473ffffffffffffffffffffffffffffffffffffffff1673ffffffffffffffffffffffffffffffffffffffff16636352211e856040518263ffffffff1660e01b81526004016142299190615a54565b60206040518083038186803b15801561424157600080fd5b505afa158015614255573d6000803e3d6000fd5b505050506040513d601f19601f820116820180604052506142799190810190614b9d565b73ffffffffffffffffffffffffffffffffffffffff16146142cf576040517f08c379a00000000000000000000000000000000000000000000000000000000081526004016142c6906159b4565b60405180910390fd5b60018201600360003373ffffffffffffffffffffffffffffffffffffffff1673ffffffffffffffffffffffffffffffffffffffff16815260200190815260200160002060009054906101000a900473ffffffffffffffffffffffffffffffffffffffff1673ffffffffffffffffffffffffffffffffffffffff166370a08231306040518263ffffffff1660e01b815260040161436b9190615628565b60206040518083038186803b15801561438357600080fd5b505afa158015614397573d6000803e3d6000fd5b505050506040513d601f19601f820116820180604052506143bb9190810190614d9f565b146143fb576040517f08c379a00000000000000000000000000000000000000000000000000000000081526004016143f290615a34565b60405180910390fd5b600260003373ffffffffffffffffffffffffffffffffffffffff1673ffffffffffffffffffffffffffffffffffffffff1681526020019081526020016000206000603e815260200190815260200160002060009054906101000a900460ff16614559576001600260003373ffffffffffffffffffffffffffffffffffffffff1673ffffffffffffffffffffffffffffffffffffffff1681526020019081526020016000206000603e815260200190815260200160002060006101000a81548160ff021916908315150217905550600160009054906101000a900473ffffffffffffffffffffffffffffffffffffffff1673ffffffffffffffffffffffffffffffffffffffff1663158a49883360026040518363ffffffff1660e01b81526004016145269291906156cc565b600060405180830381600087803b15801561454057600080fd5b505af1158015614554573d6000803e3d6000fd5b505050505b505050565b60006041604260008473ffffffffffffffffffffffffffffffffffffffff1673ffffffffffffffffffffffffffffffffffffffff16815260200190815260200160002054601481106145ac57fe5b602091828204019190069054906101000a900460ff169050919050565b60006020528060005260406000206000915054906101000a900460ff1681565b60046020528060005260406000206000915054906101000a900460ff1681565b60008160405160200161461c9190615611565b60405160208183030381529060405280519060200120836040516020016146439190615611565b6040516020818303038152906040528051906020012014905092915050565b82601481019282156146a4579160200282015b828111156146a357825182908051906020019061469392919061478e565b5091602001919060010190614675565b5b5090506146b1919061480e565b5090565b82601481019282156146e4579160200282015b828111156146e35782518255916020019190600101906146c8565b5b5090506146f1919061483a565b5090565b826014601f0160209004810192821561477d5791602002820160005b8382111561474e57835183826101000a81548160ff0219169083151502179055509260200192600101602081600001049283019260010302614711565b801561477b5782816101000a81549060ff021916905560010160208160000104928301926001030261474e565b505b50905061478a919061485f565b5090565b828054600181600116156101000203166002900490600052602060002090601f016020900481019282601f106147cf57805160ff19168380011785556147fd565b828001600101855582156147fd579182015b828111156147fc5782518255916020019190600101906147e1565b5b50905061480a919061483a565b5090565b61483791905b80821115614833576000818161482a919061488f565b50600101614814565b5090565b90565b61485c91905b80821115614858576000816000905550600101614840565b5090565b90565b61488c91905b8082111561488857600081816101000a81549060ff021916905550600101614865565b5090565b90565b50805460018160011615610100020316600290046000825580601f106148b557506148d4565b601f0160209004906000526020600020908101906148d3919061483a565b5b50565b6000813590506148e681615d5a565b92915050565b6000815190506148fb81615d5a565b92915050565b600082601f83011261491257600080fd5b601461492561492082615b11565b615ae4565b9150818385602084028201111561493b57600080fd5b60005b8381101561496b57816149518882614a4e565b84526020840193506020830192505060018101905061493e565b5050505092915050565b600082601f83011261498657600080fd5b601461499961499482615b33565b615ae4565b9150818360005b838110156149d057813586016149b68882614aa2565b8452602084019350602083019250506001810190506149a0565b5050505092915050565b600082601f8301126149eb57600080fd5b60146149fe6149f982615b55565b615ae4565b91508183856020840282011115614a1457600080fd5b60005b83811015614a445781614a2a8882614b4a565b845260208401935060208301925050600181019050614a17565b5050505092915050565b600081359050614a5d81615d71565b92915050565b600081519050614a7281615d71565b92915050565b600081359050614a8781615d88565b92915050565b600081359050614a9c81615d9f565b92915050565b600082601f830112614ab357600080fd5b8135614ac6614ac182615b77565b615ae4565b91508082526020830160208301858383011115614ae257600080fd5b614aed838284615d07565b50505092915050565b600082601f830112614b0757600080fd5b8151614b1a614b1582615ba3565b615ae4565b91508082526020830160208301858383011115614b3657600080fd5b614b41838284615d16565b50505092915050565b600081359050614b5981615db6565b92915050565b600081519050614b6e81615db6565b92915050565b600060208284031215614b8657600080fd5b6000614b94848285016148d7565b91505092915050565b600060208284031215614baf57600080fd5b6000614bbd848285016148ec565b91505092915050565b60008060408385031215614bd957600080fd5b6000614be7858286016148d7565b9250506020614bf885828601614b4a565b9150509250929050565b6000806000806107a08587031215614c1957600080fd5b600085013567ffffffffffffffff811115614c3357600080fd5b614c3f87828801614975565b9450506020614c50878288016149da565b9350506102a0614c62878288016149da565b925050610520614c7487828801614901565b91505092959194509250565b600060208284031215614c9257600080fd5b6000614ca084828501614a63565b91505092915050565b600060208284031215614cbb57600080fd5b6000614cc984828501614a78565b91505092915050565b600060208284031215614ce457600080fd5b6000614cf284828501614a8d565b91505092915050565b60008060008060808587031215614d1157600080fd5b600085015167ffffffffffffffff811115614d2b57600080fd5b614d3787828801614af6565b9450506020614d4887828801614a63565b9350506040614d5987828801614b5f565b9250506060614d6a87828801614b5f565b91505092959194509250565b600060208284031215614d8857600080fd5b6000614d9684828501614b4a565b91505092915050565b600060208284031215614db157600080fd5b6000614dbf84828501614b5f565b91505092915050565b614dd181615c65565b82525050565b614de081615c13565b82525050565b614def81615c77565b82525050565b614dfe81615c9b565b82525050565b614e0d81615cad565b82525050565b614e1c81615cbf565b82525050565b614e2b81615cd1565b82525050565b6000614e3c82615bda565b614e468185615be5565b9350614e56818560208601615d16565b614e5f81615d49565b840191505092915050565b6000614e7582615bda565b614e7f8185615bf6565b9350614e8f818560208601615d16565b80840191505092915050565b6000614ea682615bcf565b614eb08185615be5565b9350614ec0818560208601615d16565b614ec981615d49565b840191505092915050565b6000614ee1602183615be5565b91507f5468697320616e696d616c20616c72656164792062656c6f6e677320746f206d60008301527f65000000000000000000000000000000000000000000000000000000000000006020830152604082019050919050565b6000614f47601b83615be5565b91507f5468697320616e696d616c206973206e6f7420666f722073616c6500000000006000830152602082019050919050565b6000614f87602883615be5565b91507f49207761732061626c6520746f2062757920616e20616e696d616c206e6f742060008301527f666f722073616c650000000000000000000000000000000000000000000000006020830152604082019050919050565b6000614fed602183615be5565b91507f416e696d616c206173206e6f74206265656e2061756374696f6e6e656420796560008301527f74000000000000000000000000000000000000000000000000000000000000006020830152604082019050919050565b6000615053602983615be5565b91507f4b696c6c656420616e696d616c20636861726163746572697374696373206e6f60008301527f74207265736574656400000000000000000000000000000000000000000000006020830152604082019050919050565b60006150b9601783615be5565b91507f416e696d616c206e6f7420666f722073616c65207965740000000000000000006000830152602082019050919050565b60006150f9601983615be5565b91507f416e696d616c20707269636520697320696e636f7272656374000000000000006000830152602082019050919050565b6000615139601383615be5565b91507f416e696d616c206e6f7420666f722073616c65000000000000000000000000006000830152602082019050919050565b6000615179601a83615be5565b91507f596f75206861766520746f20686f6c6420616e20616e696d616c0000000000006000830152602082019050919050565b60006151b9603183615be5565b91507f4576616c7561746f7220686173207468652073616d6520616d6f756e74206f6660008301527f20746f6b656e73206173206265666f72650000000000000000000000000000006020830152604082019050919050565b600061521f603b83615be5565b91507f436865636b696e67207468697320636f6e747261637420776173206e6f74207560008301527f73656420627920616e6f746865722067726f7570206265666f726500000000006020830152604082019050919050565b6000615285601c83615be5565b91507f4576616c7561746f7220697320616c72656164792062726565646572000000006000830152602082019050919050565b60006152c5602383615be5565b91507f596f757220616e696d616c20697320746f6f20657870656e7369766520666f7260008301527f206d6500000000000000000000000000000000000000000000000000000000006020830152604082019050919050565b600061532b603383615be5565b91507f4372656174656420616e696d616c20646f65736e2774206861766520636f727260008301527f65637420636861726163746572697374696373000000000000000000000000006020830152604082019050919050565b6000615391602683615be5565b91507f4576616c7561746f72207761732061626c6520746f206b696c6c20796f75722060008301527f616e696d616c00000000000000000000000000000000000000000000000000006020830152604082019050919050565b60006153f7602a83615be5565b91507f4372656174656420616e696d616c20646f65736e27742062656c6f6e6720746f60008301527f204576616c7561746f72000000000000000000000000000000000000000000006020830152604082019050919050565b600061545d602583615be5565b91507f5468697320616e696d616c20776173206e6f74207472616e736665727265642060008301527f746f206d650000000000000000000000000000000000000000000000000000006020830152604082019050919050565b60006154c3601583615be5565b91507f4e6f20736f6c7574696f6e207375626d697474656400000000000000000000006000830152602082019050919050565b6000615503602f83615be5565b91507f4576616c7561746f7220646f6573206e6f74206861766520656e6f756768204560008301527f54482c20706c7a206769762065746800000000000000000000000000000000006020830152604082019050919050565b6000615569601a83615be5565b91507f4576616c7561746f72206973206e6f74206120627265656465720000000000006000830152602082019050919050565b60006155a9602283615be5565b91507f4576616c7561746f722062616c616e636520646964206e6f7420696e6372656160008301527f73650000000000000000000000000000000000000000000000000000000000006020830152604082019050919050565b61560b81615c5b565b82525050565b600061561d8284614e6a565b915081905092915050565b600060208201905061563d6000830184614dc8565b92915050565b60006060820190506156586000830186614dc8565b6156656020830185614dc8565b6156726040830184614e13565b949350505050565b600060408201905061568f6000830185614dc8565b61569c6020830184614df5565b9392505050565b60006040820190506156b86000830185614dc8565b6156c56020830184614e13565b9392505050565b60006040820190506156e16000830185614dc8565b6156ee6020830184614e22565b9392505050565b600060208201905061570a6000830184614dd7565b92915050565b60006020820190506157256000830184614de6565b92915050565b60006020820190506157406000830184614e13565b92915050565b600060208201905081810360008301526157608184614e31565b905092915050565b600060808201905081810360008301526157828187614e9b565b90506157916020830186615602565b61579e6040830185615602565b6157ab6060830184614dd7565b95945050505050565b600060208201905081810360008301526157cd81614ed4565b9050919050565b600060208201905081810360008301526157ed81614f3a565b9050919050565b6000602082019050818103600083015261580d81614f7a565b9050919050565b6000602082019050818103600083015261582d81614fe0565b9050919050565b6000602082019050818103600083015261584d81615046565b9050919050565b6000602082019050818103600083015261586d816150ac565b9050919050565b6000602082019050818103600083015261588d816150ec565b9050919050565b600060208201905081810360008301526158ad8161512c565b9050919050565b600060208201905081810360008301526158cd8161516c565b9050919050565b600060208201905081810360008301526158ed816151ac565b9050919050565b6000602082019050818103600083015261590d81615212565b9050919050565b6000602082019050818103600083015261592d81615278565b9050919050565b6000602082019050818103600083015261594d816152b8565b9050919050565b6000602082019050818103600083015261596d8161531e565b9050919050565b6000602082019050818103600083015261598d81615384565b9050919050565b600060208201905081810360008301526159ad816153ea565b9050919050565b600060208201905081810360008301526159cd81615450565b9050919050565b600060208201905081810360008301526159ed816154b6565b9050919050565b60006020820190508181036000830152615a0d816154f6565b9050919050565b60006020820190508181036000830152615a2d8161555c565b9050919050565b60006020820190508181036000830152615a4d8161559c565b9050919050565b6000602082019050615a696000830184615602565b92915050565b6000604082019050615a846000830185615602565b615a916020830184614e04565b9392505050565b6000608082019050615aad6000830187615602565b615aba6020830186615602565b615ac76040830185614dd7565b8181036060830152615ad98184614e31565b905095945050505050565b6000604051905081810181811067ffffffffffffffff82111715615b0757600080fd5b8060405250919050565b600067ffffffffffffffff821115615b2857600080fd5b602082029050919050565b600067ffffffffffffffff821115615b4a57600080fd5b602082029050919050565b600067ffffffffffffffff821115615b6c57600080fd5b602082029050919050565b600067ffffffffffffffff821115615b8e57600080fd5b601f19601f8301169050602081019050919050565b600067ffffffffffffffff821115615bba57600080fd5b601f19601f8301169050602081019050919050565b600081519050919050565b600081519050919050565b600082825260208201905092915050565b600081905092915050565b6000615c0c82615c3b565b9050919050565b60008115159050919050565b6000819050919050565b6000615c3482615c01565b9050919050565b600073ffffffffffffffffffffffffffffffffffffffff82169050919050565b6000819050919050565b6000615c7082615ce3565b9050919050565b6000615c8282615c89565b9050919050565b6000615c9482615c3b565b9050919050565b6000615ca682615c5b565b9050919050565b6000615cb882615c5b565b9050919050565b6000615cca82615c5b565b9050919050565b6000615cdc82615c5b565b9050919050565b6000615cee82615cf5565b9050919050565b6000615d0082615c3b565b9050919050565b82818337600083830152505050565b60005b83811015615d34578082015181840152602081019050615d19565b83811115615d43576000848401525b50505050565b6000601f19601f8301169050919050565b615d6381615c01565b8114615d6e57600080fd5b50565b615d7a81615c13565b8114615d8557600080fd5b50565b615d9181615c1f565b8114615d9c57600080fd5b50565b615da881615c29565b8114615db357600080fd5b50565b615dbf81615c5b565b8114615dca57600080fd5b5056fea2646970667358221220ae373c456cc8848fb08933e6657465432e373e306ce4c4ec35bd949e6474af1164736f6c63430006020033",
  "source": "pragma solidity ^0.6.0;\r\npragma experimental ABIEncoderV2;\r\n\r\nimport \"./ERC20TD.sol\";\r\nimport \"./IExerciceSolution.sol\";\r\n\r\ncontract Evaluator \r\n{\r\n\r\n\tmapping(address => bool) public teachers;\r\n\tERC20TD TDERC20;\r\n\r\n \tmapping(address => mapping(uint256 => bool)) public exerciceProgression;\r\n \tmapping(address => IExerciceSolution) public studentExerciceSolution;\r\n \tmapping(address => bool) public hasBeenPaired;\r\n \t\r\n\tstring[20] private randomNames;\r\n\tuint256[20] private randomLegs;\r\n\tuint256[20] private randomSex;\r\n\tbool[20] private randomWings;\r\n\tmapping(address => uint256) public assignedRank;\r\n\tuint public nextValueStoreRank;\r\n\r\n \tevent newRandomAnimalAttributes(string name, uint256 legs, uint256 sex, bool wings);\r\n \tevent constructedCorrectly(address erc20Address);\r\n\t\r\n\tconstructor(ERC20TD _TDERC20) \r\n\tpublic \r\n\t{\r\n\t\tTDERC20 = _TDERC20;\r\n\t\temit constructedCorrectly(address(TDERC20));\r\n\t}\r\n\r\n\tfallback () external payable \r\n\t{}\r\n\r\n\treceive () external payable \r\n\t{}\r\n\r\n\tfunction ex1_testERC721()\r\n\tpublic\t\r\n\t{\r\n\t\t\r\n\t\t// Checking a solution was submitted\r\n\t\trequire(exerciceProgression[msg.sender][0], \"No solution submitted\");\r\n\r\n\t\t// Check that token 1 belongs to the Evaluator\r\n\t\trequire(studentExerciceSolution[msg.sender].balanceOf(address(this)) == 1);\r\n\t\trequire(studentExerciceSolution[msg.sender].ownerOf(1) == address(this));\r\n\t\t// Check that token 1 can be transferred back to msg.sender\r\n\t\tstudentExerciceSolution[msg.sender].safeTransferFrom(address(this), msg.sender, 1);\r\n\t\trequire(studentExerciceSolution[msg.sender].balanceOf(address(this)) == 0);\r\n\t\trequire(studentExerciceSolution[msg.sender].ownerOf(1) == msg.sender);\r\n\r\n\t\t// Crediting points\r\n\t\tif (!exerciceProgression[msg.sender][1])\r\n\t\t{\r\n\t\t\texerciceProgression[msg.sender][1] = true;\r\n\t\t\t// ERC721 points\r\n\t\t\tTDERC20.distributeTokens(msg.sender, 2);\r\n\t\t}\r\n\t}\r\n\r\n\tfunction ex2a_getAnimalToCreateAttributes()\r\n\tpublic\r\n\t{\r\n\t\tassignedRank[msg.sender] = nextValueStoreRank;\r\n\t\tnextValueStoreRank += 1;\r\n\t\tif (nextValueStoreRank >= 20)\r\n\t\t{\r\n\t\t\tnextValueStoreRank = 0;\r\n\t\t}\r\n\t}\r\n\r\n\tfunction ex2b_testDeclaredAnimal(uint animalNumber)\r\n\tpublic\t\r\n\t{\r\n\t\t// Checking a solution was submitted\r\n\t\trequire(exerciceProgression[msg.sender][0], \"No solution submitted\");\r\n\r\n\t\t// Verify that contract is a registeredBreeder \r\n\t\tstring memory name = readName(msg.sender);\r\n\t\tbool wings = readWings(msg.sender);\r\n\t\tuint legs = readLegs(msg.sender);\r\n\t\tuint sex = readSex(msg.sender);\r\n\r\n\t\t// Check animal belongs to Evaluator\r\n\t\trequire(studentExerciceSolution[msg.sender].ownerOf(animalNumber) == address(this), \"Created animal doesn't belong to Evaluator\");\r\n\r\n\t\t// Check that properties are visible \r\n\t\t(string memory _name, bool _wings, uint _legs, uint _sex) = studentExerciceSolution[msg.sender].getAnimalCharacteristics(animalNumber);\r\n\t\trequire(_compareStrings(name,_name) && (wings == _wings) && (legs == _legs) && (sex == _sex), \"Created animal doesn't have correct characteristics\");\r\n\r\n\t\t// Crediting points\r\n\t\tif (!exerciceProgression[msg.sender][2])\r\n\t\t{\r\n\t\t\texerciceProgression[msg.sender][2] = true;\r\n\t\t\tTDERC20.distributeTokens(msg.sender, 2);\r\n\t\t}\r\n\t}\r\n\r\n\tfunction ex3_testRegisterBreeder()\r\n\tpublic\t\r\n\t{\r\n\t\t// Checking a solution was submitted\r\n\t\trequire(exerciceProgression[msg.sender][0], \"No solution submitted\");\r\n\r\n\t\t// Verify that contract is not a registeredBreeder yet\r\n\t\trequire(!studentExerciceSolution[msg.sender].isBreeder(address(this)), \"Evaluator is already breeder\");\r\n\r\n\t\t// Register as a breeder\r\n\t\tuint256 registrationPrice = studentExerciceSolution[msg.sender].registrationPrice();\r\n\t\trequire(address(this).balance >= registrationPrice, \"Evaluator does not have enough ETH, plz giv eth\");\r\n\t\tstudentExerciceSolution[msg.sender].registerMeAsBreeder.value(registrationPrice)();\r\n\t\trequire(studentExerciceSolution[msg.sender].isBreeder(address(this)), \"Evaluator is not a breeder\");\r\n\t\t// Crediting points\r\n\t\tif (!exerciceProgression[msg.sender][3])\r\n\t\t{\r\n\t\t\texerciceProgression[msg.sender][3] = true;\r\n\t\t\tTDERC20.distributeTokens(msg.sender, 2);\r\n\t\t}\r\n\t}\r\n\r\n\tfunction ex4_testDeclareAnimal()\r\n\tpublic\t\r\n\t{\r\n\t\t// Checking a solution was submitted\r\n\t\t//require(exerciceProgression[msg.sender][0], \"No solution submitted\");\r\n\r\n\t\t// Verify that contract is a registeredBreeder \r\n\t\trequire(studentExerciceSolution[msg.sender].isBreeder(address(this)), \"Evaluator is not a breeder\");\r\n\t\tuint256 initBalance = studentExerciceSolution[msg.sender].balanceOf(address(this));\r\n\t\tstring memory name = readName(msg.sender);\r\n\t\tbool wings = readWings(msg.sender);\r\n\t\tuint legs = readLegs(msg.sender);\r\n\t\tuint sex = readSex(msg.sender);\r\n\t\t\r\n\t\tuint animalNumber = studentExerciceSolution[msg.sender].declareAnimal(sex, legs, wings, name);\r\n\t\t// Check animal belongs to Evaluator\r\n\t\trequire(studentExerciceSolution[msg.sender].ownerOf(animalNumber) == address(this), \"Created animal doesn't belong to Evaluator\");\r\n\t\trequire(studentExerciceSolution[msg.sender].balanceOf(address(this)) == initBalance + 1, \"Evaluator balance did not increase\");\r\n\r\n\t\t// Check that properties are visible \r\n\t\t(string memory _name, bool _wings, uint _legs, uint _sex) = studentExerciceSolution[msg.sender].getAnimalCharacteristics(animalNumber);\r\n\t\trequire(_compareStrings(name,_name) && (wings == _wings) && (legs == _legs) && (sex == _sex), \"Created animal doesn't have correct characteristics\");\r\n\r\n\t\t// Crediting points\r\n\t\tif (!exerciceProgression[msg.sender][4])\r\n\t\t{\r\n\t\t\texerciceProgression[msg.sender][4] = true;\r\n\t\t\tTDERC20.distributeTokens(msg.sender, 2);\r\n\t\t}\r\n\t}\r\n\r\n\tfunction ex5_declareDeadAnimal()\r\n\tpublic\t\r\n\t{\t\r\n\t\t// Getting initial token balance. Must be at least 1\r\n\t\tuint256 initBalance = studentExerciceSolution[msg.sender].balanceOf(address(this));\r\n\t\t\r\n\t\t// Getting an animal id of Evaluator\r\n\t\tuint animalNumber = studentExerciceSolution[msg.sender].tokenOfOwnerByIndex(address(this), 0);\r\n\r\n\t\t// Declaring it as dead\r\n\t\tstudentExerciceSolution[msg.sender].declareDeadAnimal(animalNumber);\t\t\r\n\r\n\t\t// Checking end balance\r\n\t\tuint256 endBalance = studentExerciceSolution[msg.sender].balanceOf(address(this));\r\n\t\trequire(initBalance - endBalance == 1, \"Evaluator has the same amount of tokens as before\");\r\n\r\n\t\t// Check that properties are deleted \r\n\t\t(string memory _name, bool _wings, uint _legs, uint _sex) = studentExerciceSolution[msg.sender].getAnimalCharacteristics(animalNumber);\r\n\t\trequire(_compareStrings(\"\",_name) && (false == _wings) && (0 == _legs) && (0 == _sex), \"Killed animal characteristics not reseted\");\r\n\r\n\t\t// Testing killing another person's animal. The caller has to hold an animal\r\n\t\tuint exerciceSolutionAnimalNumber = studentExerciceSolution[msg.sender].tokenOfOwnerByIndex(msg.sender, 0);\r\n\t\trequire(studentExerciceSolution[msg.sender].ownerOf(exerciceSolutionAnimalNumber) == msg.sender, \"You have to hold an animal\");\r\n\r\n\t\t// Evaluator tries to declare a dead animal that does not belong to him\r\n\t\tbool wasKillAccepted = false;\r\n\t\ttry studentExerciceSolution[msg.sender].declareDeadAnimal(exerciceSolutionAnimalNumber)\r\n\t\t{\r\n\t\t\twasKillAccepted = true;\r\n        } \r\n        catch \r\n        {\r\n            // This is executed in case revert() was used.\r\n            wasKillAccepted = false;\r\n        }\r\n\r\n        require(!wasKillAccepted, \"Evaluator was able to kill your animal\");\r\n\r\n\r\n\t\t// Crediting points\r\n\t\tif (!exerciceProgression[msg.sender][5])\r\n\t\t{\r\n\t\t\texerciceProgression[msg.sender][5] = true;\r\n\t\t\tTDERC20.distributeTokens(msg.sender, 2);\r\n\t\t}\r\n\t}\r\n\r\n\tfunction ex6a_auctionAnimal_offer()\r\n\tpublic\r\n\t{\r\n\t\t// Offer an animal for sale. Evaluator must hold at least one animal.\r\n\t\t// Getting an animal id of Evaluator\r\n\t\tuint animalNumber = studentExerciceSolution[msg.sender].tokenOfOwnerByIndex(address(this), 0);\r\n\r\n\t\t// Testing that animal is not for sale yet\r\n\t\trequire(!studentExerciceSolution[msg.sender].isAnimalForSale(animalNumber), \"Animal not for sale yet\" );\r\n\t\trequire(studentExerciceSolution[msg.sender].animalPrice(animalNumber) == 0, \"Animal as not been auctionned yet\");\r\n\r\n\t\t// Trying to buy animal not for sale\r\n\t\tbool wasBuyAccepted = false;\r\n\t\ttry studentExerciceSolution[msg.sender].buyAnimal(animalNumber)\r\n\t\t{\r\n\t\t\twasBuyAccepted = true;\r\n        } \r\n        catch \r\n        {\r\n            // This is executed in case revert() was used.\r\n            wasBuyAccepted = false;\r\n        }\r\n        require(!wasBuyAccepted, \"I was able to buy an animal not for sale\");\r\n\r\n\r\n        // Offering animal for sale\r\n        studentExerciceSolution[msg.sender].offerForSale(animalNumber, 0.0001 ether);\r\n\r\n        // Checking it is for sale\r\n        require(studentExerciceSolution[msg.sender].isAnimalForSale(animalNumber), \"Animal not for sale\" );\r\n\t\trequire(studentExerciceSolution[msg.sender].animalPrice(animalNumber) == 0.0001 ether, \"Animal price is incorrect\");\r\n\r\n\t\t// Crediting points\r\n\t\tif (!exerciceProgression[msg.sender][61])\r\n\t\t{\r\n\t\t\texerciceProgression[msg.sender][61] = true;\r\n\t\t\tTDERC20.distributeTokens(msg.sender, 1);\r\n\t\t}\r\n\t}\r\n\r\n\tfunction ex6b_auctionAnimal_buy(uint animalForSale)\r\n\tpublic\r\n\t{\r\n\t\t// Buy an animal that is on sale. \r\n\t\t// Getting initial token balance\r\n\t\tuint256 initBalance = studentExerciceSolution[msg.sender].balanceOf(address(this));\r\n\r\n\t\t// Verify the animal does not belong to evaluator\r\n\t\trequire(studentExerciceSolution[msg.sender].ownerOf(animalForSale) != address(this), \"This animal already belongs to me\");\r\n\r\n\t\t// Verify that the animal is offered for sale \r\n\t\trequire(studentExerciceSolution[msg.sender].isAnimalForSale(animalForSale), \"This animal is not for sale\");\r\n\r\n\t\t// Check the price of animal\r\n\t\tuint animalPrice = studentExerciceSolution[msg.sender].animalPrice(animalForSale);\r\n\t\trequire(address(this).balance >= animalPrice, \"Your animal is too expensive for me\");\r\n\r\n\t\t// Buy the animal\r\n\t\tstudentExerciceSolution[msg.sender].buyAnimal.value(animalPrice)(animalForSale);\r\n\r\n\t\t// Check that it is mine\r\n\t\trequire(studentExerciceSolution[msg.sender].ownerOf(animalForSale) == address(this), \"This animal was not transferred to me\");\r\n\t\trequire(studentExerciceSolution[msg.sender].balanceOf(address(this)) == initBalance + 1, \"Evaluator balance did not increase\");\r\n\r\n\t\t// Crediting points\r\n\t\tif (!exerciceProgression[msg.sender][62])\r\n\t\t{\r\n\t\t\texerciceProgression[msg.sender][62] = true;\r\n\t\t\tTDERC20.distributeTokens(msg.sender, 2);\r\n\t\t}\r\n\r\n\t}\r\n\r\n\t/* Internal functions and modifiers */ \r\n\tfunction submitExercice(IExerciceSolution studentExercice)\r\n\tpublic\r\n\t{\r\n\t\t\r\n\t\t// Checking this contract was not used by another group before\r\n\t\trequire(!hasBeenPaired[address(studentExercice)],\"Checking this contract was not used by another group before\");\r\n\r\n\t\t// Assigning passed ERC20 as student ERC20\r\n\t\tstudentExerciceSolution[msg.sender] = studentExercice;\r\n\t\trequire(!hasBeenPaired[address(studentExercice)],\"Checking this contract was not used by another group before\");\r\n\t\thasBeenPaired[address(studentExercice)] = true;\r\n\r\n\t\tif (!exerciceProgression[msg.sender][0])\r\n\t\t{\r\n\t\t\t\r\n\t\t\texerciceProgression[msg.sender][0] = true;\r\n\t\t\t// setup points\r\n\t\t\tTDERC20.distributeTokens(msg.sender, 2);\r\n\t\t\t// Deploying contract points\r\n\t\t\tTDERC20.distributeTokens(msg.sender, 2);\r\n\t\t}\r\n\t}\r\n\r\n\tmodifier onlyTeachers() \r\n\t{\r\n\r\n\t    require(TDERC20.teachers(msg.sender));\r\n\t    _;\r\n\t}\r\n\r\n\tfunction _compareStrings(string memory a, string memory b) \r\n\tinternal \r\n\tpure \r\n\treturns (bool) \r\n\t{\r\n    \treturn (keccak256(abi.encodePacked((a))) == keccak256(abi.encodePacked((b))));\r\n\t}\r\n\r\n\tfunction bytes32ToString(bytes32 _bytes32) \r\n\tpublic \r\n\tpure returns (string memory) \r\n\t{\r\n        uint8 i = 0;\r\n        while(i < 32 && _bytes32[i] != 0) {\r\n            i++;\r\n        }\r\n        bytes memory bytesArray = new bytes(i);\r\n        for (i = 0; i < 32 && _bytes32[i] != 0; i++) {\r\n            bytesArray[i] = _bytes32[i];\r\n        }\r\n        return string(bytesArray);\r\n    }\r\n\r\n    function readName(address studentAddres)\r\n\tpublic\r\n\tview\r\n\treturns(string memory)\r\n\t{\r\n\t\treturn randomNames[assignedRank[studentAddres]];\r\n\t}\r\n\r\n\tfunction readLegs(address studentAddres)\r\n\tpublic\r\n\tview\r\n\treturns(uint256)\r\n\t{\r\n\t\treturn randomLegs[assignedRank[studentAddres]];\r\n\t}\r\n\r\n\tfunction readSex(address studentAddres)\r\n\tpublic\r\n\tview\r\n\treturns(uint256)\r\n\t{\r\n\t\treturn randomSex[assignedRank[studentAddres]];\r\n\t}\r\n\r\n\tfunction readWings(address studentAddres)\r\n\tpublic\r\n\tview\r\n\treturns(bool)\r\n\t{\r\n\t\treturn randomWings[assignedRank[studentAddres]];\r\n\t}\r\n\r\n\tfunction setRandomValuesStore(string[20] memory _randomNames, uint256[20] memory _randomLegs, uint256[20] memory _randomSex, bool[20] memory _randomWings) \r\n\tpublic \r\n\tonlyTeachers\r\n\t{\r\n\t\trandomNames = _randomNames;\r\n\t\trandomLegs = _randomLegs;\r\n\t\trandomSex = _randomSex;\r\n\t\trandomWings = _randomWings;\r\n\t\tnextValueStoreRank = 0;\r\n\t\tfor (uint i = 0; i < 20; i++)\r\n\t\t{\r\n\t\t\temit newRandomAnimalAttributes(_randomNames[i], _randomLegs[i], _randomSex[i], _randomWings[i]);\r\n\t\t}\r\n\t}\r\n\r\n}\r\n",
  "sourcePath": "C:\\Users\\pierr\\Documents\\GitHub\\TD4\\contracts\\Evaluator.sol",
  "compiler": {
    "name": "solc",
    "version": "0.6.2+commit.bacdbe57.Emscripten.clang"
  },
  "schemaVersion": "3.4.3",
  "updatedAt": "2021-12-10T01:27:56.069Z",
  "networkType": "ethereum",
  "devdoc": {
    "methods": {}
  },
  "userdoc": {
    "methods": {}
  }
}